{
	"contracts/VotingContract.sol": {
		"BlockchainVotingSystem": {
			"abi": [
				{
					"inputs": [],
					"stateMutability": "nonpayable",
					"type": "constructor"
				},
				{
					"anonymous": false,
					"inputs": [
						{
							"indexed": false,
							"internalType": "uint256",
							"name": "candidateId",
							"type": "uint256"
						},
						{
							"indexed": false,
							"internalType": "string",
							"name": "name",
							"type": "string"
						}
					],
					"name": "CandidateAdded",
					"type": "event"
				},
				{
					"anonymous": false,
					"inputs": [
						{
							"indexed": true,
							"internalType": "address",
							"name": "voter",
							"type": "address"
						},
						{
							"indexed": false,
							"internalType": "uint256",
							"name": "candidateId",
							"type": "uint256"
						}
					],
					"name": "VoteCast",
					"type": "event"
				},
				{
					"anonymous": false,
					"inputs": [
						{
							"indexed": false,
							"internalType": "address",
							"name": "voter",
							"type": "address"
						}
					],
					"name": "VoterRegistered",
					"type": "event"
				},
				{
					"anonymous": false,
					"inputs": [],
					"name": "VotingEnded",
					"type": "event"
				},
				{
					"anonymous": false,
					"inputs": [],
					"name": "VotingStarted",
					"type": "event"
				},
				{
					"inputs": [
						{
							"internalType": "string",
							"name": "_name",
							"type": "string"
						}
					],
					"name": "addCandidate",
					"outputs": [],
					"stateMutability": "nonpayable",
					"type": "function"
				},
				{
					"inputs": [],
					"name": "admin",
					"outputs": [
						{
							"internalType": "address",
							"name": "",
							"type": "address"
						}
					],
					"stateMutability": "view",
					"type": "function"
				},
				{
					"inputs": [
						{
							"internalType": "uint256",
							"name": "",
							"type": "uint256"
						}
					],
					"name": "candidates",
					"outputs": [
						{
							"internalType": "uint256",
							"name": "id",
							"type": "uint256"
						},
						{
							"internalType": "string",
							"name": "name",
							"type": "string"
						},
						{
							"internalType": "uint256",
							"name": "voteCount",
							"type": "uint256"
						}
					],
					"stateMutability": "view",
					"type": "function"
				},
				{
					"inputs": [],
					"name": "endVoting",
					"outputs": [],
					"stateMutability": "nonpayable",
					"type": "function"
				},
				{
					"inputs": [],
					"name": "getCandidateCount",
					"outputs": [
						{
							"internalType": "uint256",
							"name": "",
							"type": "uint256"
						}
					],
					"stateMutability": "view",
					"type": "function"
				},
				{
					"inputs": [],
					"name": "getVotingStatus",
					"outputs": [
						{
							"internalType": "bool",
							"name": "",
							"type": "bool"
						}
					],
					"stateMutability": "view",
					"type": "function"
				},
				{
					"inputs": [
						{
							"internalType": "address",
							"name": "_voter",
							"type": "address"
						}
					],
					"name": "registerVoter",
					"outputs": [],
					"stateMutability": "nonpayable",
					"type": "function"
				},
				{
					"inputs": [],
					"name": "startVoting",
					"outputs": [],
					"stateMutability": "nonpayable",
					"type": "function"
				},
				{
					"inputs": [
						{
							"internalType": "uint256",
							"name": "_candidateId",
							"type": "uint256"
						}
					],
					"name": "vote",
					"outputs": [],
					"stateMutability": "nonpayable",
					"type": "function"
				},
				{
					"inputs": [
						{
							"internalType": "address",
							"name": "",
							"type": "address"
						}
					],
					"name": "voters",
					"outputs": [
						{
							"internalType": "bool",
							"name": "isRegistered",
							"type": "bool"
						},
						{
							"internalType": "bool",
							"name": "hasVoted",
							"type": "bool"
						}
					],
					"stateMutability": "view",
					"type": "function"
				},
				{
					"inputs": [],
					"name": "votingOpen",
					"outputs": [
						{
							"internalType": "bool",
							"name": "",
							"type": "bool"
						}
					],
					"stateMutability": "view",
					"type": "function"
				}
			],
			"devdoc": {
				"kind": "dev",
				"methods": {},
				"version": 1
			},
			"evm": {
				"assembly": "    /* \"contracts/VotingContract.sol\":61:2860  contract BlockchainVotingSystem {... */\n  mstore(0x40, 0x80)\n    /* \"contracts/VotingContract.sol\":203:208  false */\n  0x00\n    /* \"contracts/VotingContract.sol\":178:208  bool public votingOpen = false */\n  dup1\n  exp(0x0100, 0x14)\n  dup2\n  sload\n  dup2\n  0xff\n  mul\n  not\n  and\n  swap1\n  dup4\n  iszero\n  iszero\n  mul\n  or\n  swap1\n  sstore\n  pop\n    /* \"contracts/VotingContract.sol\":1062:1113  constructor() {... */\n  callvalue\n  dup1\n  iszero\n  tag_1\n  jumpi\n  0x00\n  dup1\n  revert\ntag_1:\n  pop\n    /* \"contracts/VotingContract.sol\":1095:1105  msg.sender */\n  caller\n    /* \"contracts/VotingContract.sol\":1087:1092  admin */\n  0x00\n  dup1\n    /* \"contracts/VotingContract.sol\":1087:1105  admin = msg.sender */\n  0x0100\n  exp\n  dup2\n  sload\n  dup2\n  0xffffffffffffffffffffffffffffffffffffffff\n  mul\n  not\n  and\n  swap1\n  dup4\n  0xffffffffffffffffffffffffffffffffffffffff\n  and\n  mul\n  or\n  swap1\n  sstore\n  pop\n    /* \"contracts/VotingContract.sol\":61:2860  contract BlockchainVotingSystem {... */\n  dataSize(sub_0)\n  dup1\n  dataOffset(sub_0)\n  0x00\n  codecopy\n  0x00\n  return\nstop\n\nsub_0: assembly {\n        /* \"contracts/VotingContract.sol\":61:2860  contract BlockchainVotingSystem {... */\n      mstore(0x40, 0x80)\n      callvalue\n      dup1\n      iszero\n      tag_1\n      jumpi\n      0x00\n      dup1\n      revert\n    tag_1:\n      pop\n      jumpi(tag_2, lt(calldatasize, 0x04))\n      shr(0xe0, calldataload(0x00))\n      dup1\n      0x462e91ec\n      gt\n      tag_14\n      jumpi\n      dup1\n      0x462e91ec\n      eq\n      tag_8\n      jumpi\n      dup1\n      0x581c281c\n      eq\n      tag_9\n      jumpi\n      dup1\n      0xa3ec138d\n      eq\n      tag_10\n      jumpi\n      dup1\n      0xa95824b4\n      eq\n      tag_11\n      jumpi\n      dup1\n      0xc3403ddf\n      eq\n      tag_12\n      jumpi\n      dup1\n      0xf851a440\n      eq\n      tag_13\n      jumpi\n      jump(tag_2)\n    tag_14:\n      dup1\n      0x0121b93f\n      eq\n      tag_3\n      jumpi\n      dup1\n      0x1ec6b60a\n      eq\n      tag_4\n      jumpi\n      dup1\n      0x30a56347\n      eq\n      tag_5\n      jumpi\n      dup1\n      0x3477ee2e\n      eq\n      tag_6\n      jumpi\n      dup1\n      0x38db6dd3\n      eq\n      tag_7\n      jumpi\n    tag_2:\n      0x00\n      dup1\n      revert\n        /* \"contracts/VotingContract.sol\":2165:2588  function vote(uint256 _candidateId) external votingIsOpen {... */\n    tag_3:\n      tag_15\n      0x04\n      dup1\n      calldatasize\n      sub\n      dup2\n      add\n      swap1\n      tag_16\n      swap2\n      swap1\n      tag_17\n      jump\t// in\n    tag_16:\n      tag_18\n      jump\t// in\n    tag_15:\n      stop\n        /* \"contracts/VotingContract.sol\":1762:1928  function startVoting() external onlyAdmin {... */\n    tag_4:\n      tag_19\n      tag_20\n      jump\t// in\n    tag_19:\n      stop\n        /* \"contracts/VotingContract.sol\":2626:2730  function getCandidateCount() external view returns (uint256) {... */\n    tag_5:\n      tag_21\n      tag_22\n      jump\t// in\n    tag_21:\n      mload(0x40)\n      tag_23\n      swap2\n      swap1\n      tag_24\n      jump\t// in\n    tag_23:\n      mload(0x40)\n      dup1\n      swap2\n      sub\n      swap1\n      return\n        /* \"contracts/VotingContract.sol\":520:549  Candidate[] public candidates */\n    tag_6:\n      tag_25\n      0x04\n      dup1\n      calldatasize\n      sub\n      dup2\n      add\n      swap1\n      tag_26\n      swap2\n      swap1\n      tag_17\n      jump\t// in\n    tag_26:\n      tag_27\n      jump\t// in\n    tag_25:\n      mload(0x40)\n      tag_28\n      swap4\n      swap3\n      swap2\n      swap1\n      tag_29\n      jump\t// in\n    tag_28:\n      mload(0x40)\n      dup1\n      swap2\n      sub\n      swap1\n      return\n        /* \"contracts/VotingContract.sol\":1163:1390  function registerVoter(address _voter) external onlyAdmin {... */\n    tag_7:\n      tag_30\n      0x04\n      dup1\n      calldatasize\n      sub\n      dup2\n      add\n      swap1\n      tag_31\n      swap2\n      swap1\n      tag_32\n      jump\t// in\n    tag_31:\n      tag_33\n      jump\t// in\n    tag_30:\n      stop\n        /* \"contracts/VotingContract.sol\":1443:1712  function addCandidate(string memory _name) external onlyAdmin {... */\n    tag_8:\n      tag_34\n      0x04\n      dup1\n      calldatasize\n      sub\n      dup2\n      add\n      swap1\n      tag_35\n      swap2\n      swap1\n      tag_36\n      jump\t// in\n    tag_35:\n      tag_37\n      jump\t// in\n    tag_34:\n      stop\n        /* \"contracts/VotingContract.sol\":2765:2857  function getVotingStatus() external view returns (bool) {... */\n    tag_9:\n      tag_38\n      tag_39\n      jump\t// in\n    tag_38:\n      mload(0x40)\n      tag_40\n      swap2\n      swap1\n      tag_41\n      jump\t// in\n    tag_40:\n      mload(0x40)\n      dup1\n      swap2\n      sub\n      swap1\n      return\n        /* \"contracts/VotingContract.sol\":474:513  mapping(address => Voter) public voters */\n    tag_10:\n      tag_42\n      0x04\n      dup1\n      calldatasize\n      sub\n      dup2\n      add\n      swap1\n      tag_43\n      swap2\n      swap1\n      tag_32\n      jump\t// in\n    tag_43:\n      tag_44\n      jump\t// in\n    tag_42:\n      mload(0x40)\n      tag_45\n      swap3\n      swap2\n      swap1\n      tag_46\n      jump\t// in\n    tag_45:\n      mload(0x40)\n      dup1\n      swap2\n      sub\n      swap1\n      return\n        /* \"contracts/VotingContract.sol\":178:208  bool public votingOpen = false */\n    tag_11:\n      tag_47\n      tag_48\n      jump\t// in\n    tag_47:\n      mload(0x40)\n      tag_49\n      swap2\n      swap1\n      tag_41\n      jump\t// in\n    tag_49:\n      mload(0x40)\n      dup1\n      swap2\n      sub\n      swap1\n      return\n        /* \"contracts/VotingContract.sol\":1978:2136  function endVoting() external onlyAdmin {... */\n    tag_12:\n      tag_50\n      tag_51\n      jump\t// in\n    tag_50:\n      stop\n        /* \"contracts/VotingContract.sol\":124:144  address public admin */\n    tag_13:\n      tag_52\n      tag_53\n      jump\t// in\n    tag_52:\n      mload(0x40)\n      tag_54\n      swap2\n      swap1\n      tag_55\n      jump\t// in\n    tag_54:\n      mload(0x40)\n      dup1\n      swap2\n      sub\n      swap1\n      return\n        /* \"contracts/VotingContract.sol\":2165:2588  function vote(uint256 _candidateId) external votingIsOpen {... */\n    tag_18:\n        /* \"contracts/VotingContract.sol\":1001:1011  votingOpen */\n      0x00\n      0x14\n      swap1\n      sload\n      swap1\n      0x0100\n      exp\n      swap1\n      div\n      0xff\n      and\n        /* \"contracts/VotingContract.sol\":993:1034  require(votingOpen, \"Voting is not open\") */\n      tag_57\n      jumpi\n      mload(0x40)\n      0x08c379a000000000000000000000000000000000000000000000000000000000\n      dup2\n      mstore\n      0x04\n      add\n      tag_58\n      swap1\n      tag_59\n      jump\t// in\n    tag_58:\n      mload(0x40)\n      dup1\n      swap2\n      sub\n      swap1\n      revert\n    tag_57:\n        /* \"contracts/VotingContract.sol\":2242:2248  voters */\n      0x01\n        /* \"contracts/VotingContract.sol\":2242:2260  voters[msg.sender] */\n      0x00\n        /* \"contracts/VotingContract.sol\":2249:2259  msg.sender */\n      caller\n        /* \"contracts/VotingContract.sol\":2242:2260  voters[msg.sender] */\n      0xffffffffffffffffffffffffffffffffffffffff\n      and\n      0xffffffffffffffffffffffffffffffffffffffff\n      and\n      dup2\n      mstore\n      0x20\n      add\n      swap1\n      dup2\n      mstore\n      0x20\n      add\n      0x00\n      keccak256\n        /* \"contracts/VotingContract.sol\":2242:2273  voters[msg.sender].isRegistered */\n      0x00\n      add\n      0x00\n      swap1\n      sload\n      swap1\n      0x0100\n      exp\n      swap1\n      div\n      0xff\n      and\n        /* \"contracts/VotingContract.sol\":2234:2298  require(voters[msg.sender].isRegistered, \"Voter not registered\") */\n      tag_61\n      jumpi\n      mload(0x40)\n      0x08c379a000000000000000000000000000000000000000000000000000000000\n      dup2\n      mstore\n      0x04\n      add\n      tag_62\n      swap1\n      tag_63\n      jump\t// in\n    tag_62:\n      mload(0x40)\n      dup1\n      swap2\n      sub\n      swap1\n      revert\n    tag_61:\n        /* \"contracts/VotingContract.sol\":2318:2324  voters */\n      0x01\n        /* \"contracts/VotingContract.sol\":2318:2336  voters[msg.sender] */\n      0x00\n        /* \"contracts/VotingContract.sol\":2325:2335  msg.sender */\n      caller\n        /* \"contracts/VotingContract.sol\":2318:2336  voters[msg.sender] */\n      0xffffffffffffffffffffffffffffffffffffffff\n      and\n      0xffffffffffffffffffffffffffffffffffffffff\n      and\n      dup2\n      mstore\n      0x20\n      add\n      swap1\n      dup2\n      mstore\n      0x20\n      add\n      0x00\n      keccak256\n        /* \"contracts/VotingContract.sol\":2318:2345  voters[msg.sender].hasVoted */\n      0x00\n      add\n      0x01\n      swap1\n      sload\n      swap1\n      0x0100\n      exp\n      swap1\n      div\n      0xff\n      and\n        /* \"contracts/VotingContract.sol\":2317:2345  !voters[msg.sender].hasVoted */\n      iszero\n        /* \"contracts/VotingContract.sol\":2309:2363  require(!voters[msg.sender].hasVoted, \"Already voted\") */\n      tag_64\n      jumpi\n      mload(0x40)\n      0x08c379a000000000000000000000000000000000000000000000000000000000\n      dup2\n      mstore\n      0x04\n      add\n      tag_65\n      swap1\n      tag_66\n      jump\t// in\n    tag_65:\n      mload(0x40)\n      dup1\n      swap2\n      sub\n      swap1\n      revert\n    tag_64:\n        /* \"contracts/VotingContract.sol\":2397:2407  candidates */\n      0x02\n        /* \"contracts/VotingContract.sol\":2397:2414  candidates.length */\n      dup1\n      sload\n      swap1\n      pop\n        /* \"contracts/VotingContract.sol\":2382:2394  _candidateId */\n      dup2\n        /* \"contracts/VotingContract.sol\":2382:2414  _candidateId < candidates.length */\n      lt\n        /* \"contracts/VotingContract.sol\":2374:2436  require(_candidateId < candidates.length, \"Invalid candidate\") */\n      tag_67\n      jumpi\n      mload(0x40)\n      0x08c379a000000000000000000000000000000000000000000000000000000000\n      dup2\n      mstore\n      0x04\n      add\n      tag_68\n      swap1\n      tag_69\n      jump\t// in\n    tag_68:\n      mload(0x40)\n      dup1\n      swap2\n      sub\n      swap1\n      revert\n    tag_67:\n        /* \"contracts/VotingContract.sol\":2449:2459  candidates */\n      0x02\n        /* \"contracts/VotingContract.sol\":2460:2472  _candidateId */\n      dup2\n        /* \"contracts/VotingContract.sol\":2449:2473  candidates[_candidateId] */\n      dup2\n      sload\n      dup2\n      lt\n      tag_70\n      jumpi\n      tag_71\n      tag_72\n      jump\t// in\n    tag_71:\n    tag_70:\n      swap1\n      0x00\n      mstore\n      keccak256(0x00, 0x20)\n      swap1\n      0x03\n      mul\n      add\n        /* \"contracts/VotingContract.sol\":2449:2483  candidates[_candidateId].voteCount */\n      0x02\n      add\n      0x00\n        /* \"contracts/VotingContract.sol\":2449:2485  candidates[_candidateId].voteCount++ */\n      dup2\n      sload\n      dup1\n      swap3\n      swap2\n      swap1\n      tag_74\n      swap1\n      tag_75\n      jump\t// in\n    tag_74:\n      swap2\n      swap1\n      pop\n      sstore\n      pop\n        /* \"contracts/VotingContract.sol\":2526:2530  true */\n      0x01\n        /* \"contracts/VotingContract.sol\":2496:2502  voters */\n      dup1\n        /* \"contracts/VotingContract.sol\":2496:2514  voters[msg.sender] */\n      0x00\n        /* \"contracts/VotingContract.sol\":2503:2513  msg.sender */\n      caller\n        /* \"contracts/VotingContract.sol\":2496:2514  voters[msg.sender] */\n      0xffffffffffffffffffffffffffffffffffffffff\n      and\n      0xffffffffffffffffffffffffffffffffffffffff\n      and\n      dup2\n      mstore\n      0x20\n      add\n      swap1\n      dup2\n      mstore\n      0x20\n      add\n      0x00\n      keccak256\n        /* \"contracts/VotingContract.sol\":2496:2523  voters[msg.sender].hasVoted */\n      0x00\n      add\n      0x01\n        /* \"contracts/VotingContract.sol\":2496:2530  voters[msg.sender].hasVoted = true */\n      0x0100\n      exp\n      dup2\n      sload\n      dup2\n      0xff\n      mul\n      not\n      and\n      swap1\n      dup4\n      iszero\n      iszero\n      mul\n      or\n      swap1\n      sstore\n      pop\n        /* \"contracts/VotingContract.sol\":2555:2565  msg.sender */\n      caller\n        /* \"contracts/VotingContract.sol\":2546:2580  VoteCast(msg.sender, _candidateId) */\n      0xffffffffffffffffffffffffffffffffffffffff\n      and\n      0xa36cc2bebb74db33e9f88110a07ef56e1b31b24b4c4f51b54b1664266e29f45b\n        /* \"contracts/VotingContract.sol\":2567:2579  _candidateId */\n      dup3\n        /* \"contracts/VotingContract.sol\":2546:2580  VoteCast(msg.sender, _candidateId) */\n      mload(0x40)\n      tag_76\n      swap2\n      swap1\n      tag_24\n      jump\t// in\n    tag_76:\n      mload(0x40)\n      dup1\n      swap2\n      sub\n      swap1\n      log2\n        /* \"contracts/VotingContract.sol\":2165:2588  function vote(uint256 _candidateId) external votingIsOpen {... */\n      pop\n      jump\t// out\n        /* \"contracts/VotingContract.sol\":1762:1928  function startVoting() external onlyAdmin {... */\n    tag_20:\n        /* \"contracts/VotingContract.sol\":886:891  admin */\n      0x00\n      dup1\n      sload\n      swap1\n      0x0100\n      exp\n      swap1\n      div\n      0xffffffffffffffffffffffffffffffffffffffff\n      and\n        /* \"contracts/VotingContract.sol\":872:891  msg.sender == admin */\n      0xffffffffffffffffffffffffffffffffffffffff\n      and\n        /* \"contracts/VotingContract.sol\":872:882  msg.sender */\n      caller\n        /* \"contracts/VotingContract.sol\":872:891  msg.sender == admin */\n      0xffffffffffffffffffffffffffffffffffffffff\n      and\n      eq\n        /* \"contracts/VotingContract.sol\":864:930  require(msg.sender == admin, \"Only admin can perform this action\") */\n      tag_78\n      jumpi\n      mload(0x40)\n      0x08c379a000000000000000000000000000000000000000000000000000000000\n      dup2\n      mstore\n      0x04\n      add\n      tag_79\n      swap1\n      tag_80\n      jump\t// in\n    tag_79:\n      mload(0x40)\n      dup1\n      swap2\n      sub\n      swap1\n      revert\n    tag_78:\n        /* \"contracts/VotingContract.sol\":1824:1834  votingOpen */\n      0x00\n      0x14\n      swap1\n      sload\n      swap1\n      0x0100\n      exp\n      swap1\n      div\n      0xff\n      and\n        /* \"contracts/VotingContract.sol\":1823:1834  !votingOpen */\n      iszero\n        /* \"contracts/VotingContract.sol\":1815:1861  require(!votingOpen, \"Voting already started\") */\n      tag_82\n      jumpi\n      mload(0x40)\n      0x08c379a000000000000000000000000000000000000000000000000000000000\n      dup2\n      mstore\n      0x04\n      add\n      tag_83\n      swap1\n      tag_84\n      jump\t// in\n    tag_83:\n      mload(0x40)\n      dup1\n      swap2\n      sub\n      swap1\n      revert\n    tag_82:\n        /* \"contracts/VotingContract.sol\":1885:1889  true */\n      0x01\n        /* \"contracts/VotingContract.sol\":1872:1882  votingOpen */\n      0x00\n      0x14\n        /* \"contracts/VotingContract.sol\":1872:1889  votingOpen = true */\n      0x0100\n      exp\n      dup2\n      sload\n      dup2\n      0xff\n      mul\n      not\n      and\n      swap1\n      dup4\n      iszero\n      iszero\n      mul\n      or\n      swap1\n      sstore\n      pop\n        /* \"contracts/VotingContract.sol\":1905:1920  VotingStarted() */\n      0x877e2548498f42b7975a186b94ef1d32c86d420b7b806dd2be2bea293b895904\n      mload(0x40)\n      mload(0x40)\n      dup1\n      swap2\n      sub\n      swap1\n      log1\n        /* \"contracts/VotingContract.sol\":1762:1928  function startVoting() external onlyAdmin {... */\n      jump\t// out\n        /* \"contracts/VotingContract.sol\":2626:2730  function getCandidateCount() external view returns (uint256) {... */\n    tag_22:\n        /* \"contracts/VotingContract.sol\":2678:2685  uint256 */\n      0x00\n        /* \"contracts/VotingContract.sol\":2705:2715  candidates */\n      0x02\n        /* \"contracts/VotingContract.sol\":2705:2722  candidates.length */\n      dup1\n      sload\n      swap1\n      pop\n        /* \"contracts/VotingContract.sol\":2698:2722  return candidates.length */\n      swap1\n      pop\n        /* \"contracts/VotingContract.sol\":2626:2730  function getCandidateCount() external view returns (uint256) {... */\n      swap1\n      jump\t// out\n        /* \"contracts/VotingContract.sol\":520:549  Candidate[] public candidates */\n    tag_27:\n      0x02\n      dup2\n      dup2\n      sload\n      dup2\n      lt\n      tag_86\n      jumpi\n      0x00\n      dup1\n      revert\n    tag_86:\n      swap1\n      0x00\n      mstore\n      keccak256(0x00, 0x20)\n      swap1\n      0x03\n      mul\n      add\n      0x00\n      swap2\n      pop\n      swap1\n      pop\n      dup1\n      0x00\n      add\n      sload\n      swap1\n      dup1\n      0x01\n      add\n      dup1\n      sload\n      tag_88\n      swap1\n      tag_89\n      jump\t// in\n    tag_88:\n      dup1\n      0x1f\n      add\n      0x20\n      dup1\n      swap2\n      div\n      mul\n      0x20\n      add\n      mload(0x40)\n      swap1\n      dup2\n      add\n      0x40\n      mstore\n      dup1\n      swap3\n      swap2\n      swap1\n      dup2\n      dup2\n      mstore\n      0x20\n      add\n      dup3\n      dup1\n      sload\n      tag_90\n      swap1\n      tag_89\n      jump\t// in\n    tag_90:\n      dup1\n      iszero\n      tag_91\n      jumpi\n      dup1\n      0x1f\n      lt\n      tag_92\n      jumpi\n      0x0100\n      dup1\n      dup4\n      sload\n      div\n      mul\n      dup4\n      mstore\n      swap2\n      0x20\n      add\n      swap2\n      jump(tag_91)\n    tag_92:\n      dup3\n      add\n      swap2\n      swap1\n      0x00\n      mstore\n      keccak256(0x00, 0x20)\n      swap1\n    tag_93:\n      dup2\n      sload\n      dup2\n      mstore\n      swap1\n      0x01\n      add\n      swap1\n      0x20\n      add\n      dup1\n      dup4\n      gt\n      tag_93\n      jumpi\n      dup3\n      swap1\n      sub\n      0x1f\n      and\n      dup3\n      add\n      swap2\n    tag_91:\n      pop\n      pop\n      pop\n      pop\n      pop\n      swap1\n      dup1\n      0x02\n      add\n      sload\n      swap1\n      pop\n      dup4\n      jump\t// out\n        /* \"contracts/VotingContract.sol\":1163:1390  function registerVoter(address _voter) external onlyAdmin {... */\n    tag_33:\n        /* \"contracts/VotingContract.sol\":886:891  admin */\n      0x00\n      dup1\n      sload\n      swap1\n      0x0100\n      exp\n      swap1\n      div\n      0xffffffffffffffffffffffffffffffffffffffff\n      and\n        /* \"contracts/VotingContract.sol\":872:891  msg.sender == admin */\n      0xffffffffffffffffffffffffffffffffffffffff\n      and\n        /* \"contracts/VotingContract.sol\":872:882  msg.sender */\n      caller\n        /* \"contracts/VotingContract.sol\":872:891  msg.sender == admin */\n      0xffffffffffffffffffffffffffffffffffffffff\n      and\n      eq\n        /* \"contracts/VotingContract.sol\":864:930  require(msg.sender == admin, \"Only admin can perform this action\") */\n      tag_95\n      jumpi\n      mload(0x40)\n      0x08c379a000000000000000000000000000000000000000000000000000000000\n      dup2\n      mstore\n      0x04\n      add\n      tag_96\n      swap1\n      tag_80\n      jump\t// in\n    tag_96:\n      mload(0x40)\n      dup1\n      swap2\n      sub\n      swap1\n      revert\n    tag_95:\n        /* \"contracts/VotingContract.sol\":1241:1247  voters */\n      0x01\n        /* \"contracts/VotingContract.sol\":1241:1255  voters[_voter] */\n      0x00\n        /* \"contracts/VotingContract.sol\":1248:1254  _voter */\n      dup3\n        /* \"contracts/VotingContract.sol\":1241:1255  voters[_voter] */\n      0xffffffffffffffffffffffffffffffffffffffff\n      and\n      0xffffffffffffffffffffffffffffffffffffffff\n      and\n      dup2\n      mstore\n      0x20\n      add\n      swap1\n      dup2\n      mstore\n      0x20\n      add\n      0x00\n      keccak256\n        /* \"contracts/VotingContract.sol\":1241:1268  voters[_voter].isRegistered */\n      0x00\n      add\n      0x00\n      swap1\n      sload\n      swap1\n      0x0100\n      exp\n      swap1\n      div\n      0xff\n      and\n        /* \"contracts/VotingContract.sol\":1240:1268  !voters[_voter].isRegistered */\n      iszero\n        /* \"contracts/VotingContract.sol\":1232:1297  require(!voters[_voter].isRegistered, \"Voter already registered\") */\n      tag_98\n      jumpi\n      mload(0x40)\n      0x08c379a000000000000000000000000000000000000000000000000000000000\n      dup2\n      mstore\n      0x04\n      add\n      tag_99\n      swap1\n      tag_100\n      jump\t// in\n    tag_99:\n      mload(0x40)\n      dup1\n      swap2\n      sub\n      swap1\n      revert\n    tag_98:\n        /* \"contracts/VotingContract.sol\":1325:1343  Voter(true, false) */\n      mload(0x40)\n      dup1\n      0x40\n      add\n      0x40\n      mstore\n      dup1\n        /* \"contracts/VotingContract.sol\":1331:1335  true */\n      0x01\n        /* \"contracts/VotingContract.sol\":1325:1343  Voter(true, false) */\n      iszero\n      iszero\n      dup2\n      mstore\n      0x20\n      add\n        /* \"contracts/VotingContract.sol\":1337:1342  false */\n      0x00\n        /* \"contracts/VotingContract.sol\":1325:1343  Voter(true, false) */\n      iszero\n      iszero\n      dup2\n      mstore\n      pop\n        /* \"contracts/VotingContract.sol\":1308:1314  voters */\n      0x01\n        /* \"contracts/VotingContract.sol\":1308:1322  voters[_voter] */\n      0x00\n        /* \"contracts/VotingContract.sol\":1315:1321  _voter */\n      dup4\n        /* \"contracts/VotingContract.sol\":1308:1322  voters[_voter] */\n      0xffffffffffffffffffffffffffffffffffffffff\n      and\n      0xffffffffffffffffffffffffffffffffffffffff\n      and\n      dup2\n      mstore\n      0x20\n      add\n      swap1\n      dup2\n      mstore\n      0x20\n      add\n      0x00\n      keccak256\n        /* \"contracts/VotingContract.sol\":1308:1343  voters[_voter] = Voter(true, false) */\n      0x00\n      dup3\n      add\n      mload\n      dup2\n      0x00\n      add\n      exp(0x0100, 0x00)\n      dup2\n      sload\n      dup2\n      0xff\n      mul\n      not\n      and\n      swap1\n      dup4\n      iszero\n      iszero\n      mul\n      or\n      swap1\n      sstore\n      pop\n      0x20\n      dup3\n      add\n      mload\n      dup2\n      0x00\n      add\n      exp(0x0100, 0x01)\n      dup2\n      sload\n      dup2\n      0xff\n      mul\n      not\n      and\n      swap1\n      dup4\n      iszero\n      iszero\n      mul\n      or\n      swap1\n      sstore\n      pop\n      swap1\n      pop\n      pop\n        /* \"contracts/VotingContract.sol\":1359:1382  VoterRegistered(_voter) */\n      0xb6be2187d059cc2a55fe29e0e503b566e1e0f8c8780096e185429350acffd3dd\n        /* \"contracts/VotingContract.sol\":1375:1381  _voter */\n      dup2\n        /* \"contracts/VotingContract.sol\":1359:1382  VoterRegistered(_voter) */\n      mload(0x40)\n      tag_101\n      swap2\n      swap1\n      tag_55\n      jump\t// in\n    tag_101:\n      mload(0x40)\n      dup1\n      swap2\n      sub\n      swap1\n      log1\n        /* \"contracts/VotingContract.sol\":1163:1390  function registerVoter(address _voter) external onlyAdmin {... */\n      pop\n      jump\t// out\n        /* \"contracts/VotingContract.sol\":1443:1712  function addCandidate(string memory _name) external onlyAdmin {... */\n    tag_37:\n        /* \"contracts/VotingContract.sol\":886:891  admin */\n      0x00\n      dup1\n      sload\n      swap1\n      0x0100\n      exp\n      swap1\n      div\n      0xffffffffffffffffffffffffffffffffffffffff\n      and\n        /* \"contracts/VotingContract.sol\":872:891  msg.sender == admin */\n      0xffffffffffffffffffffffffffffffffffffffff\n      and\n        /* \"contracts/VotingContract.sol\":872:882  msg.sender */\n      caller\n        /* \"contracts/VotingContract.sol\":872:891  msg.sender == admin */\n      0xffffffffffffffffffffffffffffffffffffffff\n      and\n      eq\n        /* \"contracts/VotingContract.sol\":864:930  require(msg.sender == admin, \"Only admin can perform this action\") */\n      tag_103\n      jumpi\n      mload(0x40)\n      0x08c379a000000000000000000000000000000000000000000000000000000000\n      dup2\n      mstore\n      0x04\n      add\n      tag_104\n      swap1\n      tag_80\n      jump\t// in\n    tag_104:\n      mload(0x40)\n      dup1\n      swap2\n      sub\n      swap1\n      revert\n    tag_103:\n        /* \"contracts/VotingContract.sol\":1516:1526  candidates */\n      0x02\n        /* \"contracts/VotingContract.sol\":1532:1643  Candidate({... */\n      mload(0x40)\n      dup1\n      0x60\n      add\n      0x40\n      mstore\n      dup1\n        /* \"contracts/VotingContract.sol\":1561:1571  candidates */\n      0x02\n        /* \"contracts/VotingContract.sol\":1561:1578  candidates.length */\n      dup1\n      sload\n      swap1\n      pop\n        /* \"contracts/VotingContract.sol\":1532:1643  Candidate({... */\n      dup2\n      mstore\n      0x20\n      add\n        /* \"contracts/VotingContract.sol\":1599:1604  _name */\n      dup4\n        /* \"contracts/VotingContract.sol\":1532:1643  Candidate({... */\n      dup2\n      mstore\n      0x20\n      add\n        /* \"contracts/VotingContract.sol\":1630:1631  0 */\n      0x00\n        /* \"contracts/VotingContract.sol\":1532:1643  Candidate({... */\n      dup2\n      mstore\n      pop\n        /* \"contracts/VotingContract.sol\":1516:1644  candidates.push(Candidate({... */\n      swap1\n      dup1\n      0x01\n      dup2\n      sload\n      add\n      dup1\n      dup3\n      sstore\n      dup1\n      swap2\n      pop\n      pop\n      0x01\n      swap1\n      sub\n      swap1\n      0x00\n      mstore\n      keccak256(0x00, 0x20)\n      swap1\n      0x03\n      mul\n      add\n      0x00\n      swap1\n      swap2\n      swap1\n      swap2\n      swap1\n      swap2\n      pop\n      0x00\n      dup3\n      add\n      mload\n      dup2\n      0x00\n      add\n      sstore\n      0x20\n      dup3\n      add\n      mload\n      dup2\n      0x01\n      add\n      swap1\n      dup2\n      tag_107\n      swap2\n      swap1\n      tag_108\n      jump\t// in\n    tag_107:\n      pop\n      0x40\n      dup3\n      add\n      mload\n      dup2\n      0x02\n      add\n      sstore\n      pop\n      pop\n        /* \"contracts/VotingContract.sol\":1660:1704  CandidateAdded(candidates.length - 1, _name) */\n      0xe83b2a43e7e82d975c8a0a6d2f045153c869e111136a34d1889ab7b598e396a3\n        /* \"contracts/VotingContract.sol\":1695:1696  1 */\n      0x01\n        /* \"contracts/VotingContract.sol\":1675:1685  candidates */\n      0x02\n        /* \"contracts/VotingContract.sol\":1675:1692  candidates.length */\n      dup1\n      sload\n      swap1\n      pop\n        /* \"contracts/VotingContract.sol\":1675:1696  candidates.length - 1 */\n      tag_109\n      swap2\n      swap1\n      tag_110\n      jump\t// in\n    tag_109:\n        /* \"contracts/VotingContract.sol\":1698:1703  _name */\n      dup3\n        /* \"contracts/VotingContract.sol\":1660:1704  CandidateAdded(candidates.length - 1, _name) */\n      mload(0x40)\n      tag_111\n      swap3\n      swap2\n      swap1\n      tag_112\n      jump\t// in\n    tag_111:\n      mload(0x40)\n      dup1\n      swap2\n      sub\n      swap1\n      log1\n        /* \"contracts/VotingContract.sol\":1443:1712  function addCandidate(string memory _name) external onlyAdmin {... */\n      pop\n      jump\t// out\n        /* \"contracts/VotingContract.sol\":2765:2857  function getVotingStatus() external view returns (bool) {... */\n    tag_39:\n        /* \"contracts/VotingContract.sol\":2815:2819  bool */\n      0x00\n        /* \"contracts/VotingContract.sol\":2839:2849  votingOpen */\n      dup1\n      0x14\n      swap1\n      sload\n      swap1\n      0x0100\n      exp\n      swap1\n      div\n      0xff\n      and\n        /* \"contracts/VotingContract.sol\":2832:2849  return votingOpen */\n      swap1\n      pop\n        /* \"contracts/VotingContract.sol\":2765:2857  function getVotingStatus() external view returns (bool) {... */\n      swap1\n      jump\t// out\n        /* \"contracts/VotingContract.sol\":474:513  mapping(address => Voter) public voters */\n    tag_44:\n      mstore(0x20, 0x01)\n      dup1\n      0x00\n      mstore\n      keccak256(0x00, 0x40)\n      0x00\n      swap2\n      pop\n      swap1\n      pop\n      dup1\n      0x00\n      add\n      0x00\n      swap1\n      sload\n      swap1\n      0x0100\n      exp\n      swap1\n      div\n      0xff\n      and\n      swap1\n      dup1\n      0x00\n      add\n      0x01\n      swap1\n      sload\n      swap1\n      0x0100\n      exp\n      swap1\n      div\n      0xff\n      and\n      swap1\n      pop\n      dup3\n      jump\t// out\n        /* \"contracts/VotingContract.sol\":178:208  bool public votingOpen = false */\n    tag_48:\n      0x00\n      0x14\n      swap1\n      sload\n      swap1\n      0x0100\n      exp\n      swap1\n      div\n      0xff\n      and\n      dup2\n      jump\t// out\n        /* \"contracts/VotingContract.sol\":1978:2136  function endVoting() external onlyAdmin {... */\n    tag_51:\n        /* \"contracts/VotingContract.sol\":886:891  admin */\n      0x00\n      dup1\n      sload\n      swap1\n      0x0100\n      exp\n      swap1\n      div\n      0xffffffffffffffffffffffffffffffffffffffff\n      and\n        /* \"contracts/VotingContract.sol\":872:891  msg.sender == admin */\n      0xffffffffffffffffffffffffffffffffffffffff\n      and\n        /* \"contracts/VotingContract.sol\":872:882  msg.sender */\n      caller\n        /* \"contracts/VotingContract.sol\":872:891  msg.sender == admin */\n      0xffffffffffffffffffffffffffffffffffffffff\n      and\n      eq\n        /* \"contracts/VotingContract.sol\":864:930  require(msg.sender == admin, \"Only admin can perform this action\") */\n      tag_115\n      jumpi\n      mload(0x40)\n      0x08c379a000000000000000000000000000000000000000000000000000000000\n      dup2\n      mstore\n      0x04\n      add\n      tag_116\n      swap1\n      tag_80\n      jump\t// in\n    tag_116:\n      mload(0x40)\n      dup1\n      swap2\n      sub\n      swap1\n      revert\n    tag_115:\n        /* \"contracts/VotingContract.sol\":2037:2047  votingOpen */\n      0x00\n      0x14\n      swap1\n      sload\n      swap1\n      0x0100\n      exp\n      swap1\n      div\n      0xff\n      and\n        /* \"contracts/VotingContract.sol\":2029:2070  require(votingOpen, \"Voting not started\") */\n      tag_118\n      jumpi\n      mload(0x40)\n      0x08c379a000000000000000000000000000000000000000000000000000000000\n      dup2\n      mstore\n      0x04\n      add\n      tag_119\n      swap1\n      tag_120\n      jump\t// in\n    tag_119:\n      mload(0x40)\n      dup1\n      swap2\n      sub\n      swap1\n      revert\n    tag_118:\n        /* \"contracts/VotingContract.sol\":2094:2099  false */\n      0x00\n        /* \"contracts/VotingContract.sol\":2081:2091  votingOpen */\n      dup1\n      0x14\n        /* \"contracts/VotingContract.sol\":2081:2099  votingOpen = false */\n      0x0100\n      exp\n      dup2\n      sload\n      dup2\n      0xff\n      mul\n      not\n      and\n      swap1\n      dup4\n      iszero\n      iszero\n      mul\n      or\n      swap1\n      sstore\n      pop\n        /* \"contracts/VotingContract.sol\":2115:2128  VotingEnded() */\n      0x7a19ed057db79e3c2fa0b97a54b43bef4fce74b31bb6c01af514b9a18a7f70ab\n      mload(0x40)\n      mload(0x40)\n      dup1\n      swap2\n      sub\n      swap1\n      log1\n        /* \"contracts/VotingContract.sol\":1978:2136  function endVoting() external onlyAdmin {... */\n      jump\t// out\n        /* \"contracts/VotingContract.sol\":124:144  address public admin */\n    tag_53:\n      0x00\n      dup1\n      sload\n      swap1\n      0x0100\n      exp\n      swap1\n      div\n      0xffffffffffffffffffffffffffffffffffffffff\n      and\n      dup2\n      jump\t// out\n        /* \"#utility.yul\":7:82   */\n    tag_121:\n        /* \"#utility.yul\":40:46   */\n      0x00\n        /* \"#utility.yul\":73:75   */\n      0x40\n        /* \"#utility.yul\":67:76   */\n      mload\n        /* \"#utility.yul\":57:76   */\n      swap1\n      pop\n        /* \"#utility.yul\":7:82   */\n      swap1\n      jump\t// out\n        /* \"#utility.yul\":88:205   */\n    tag_122:\n        /* \"#utility.yul\":197:198   */\n      0x00\n        /* \"#utility.yul\":194:195   */\n      dup1\n        /* \"#utility.yul\":187:199   */\n      revert\n        /* \"#utility.yul\":211:328   */\n    tag_123:\n        /* \"#utility.yul\":320:321   */\n      0x00\n        /* \"#utility.yul\":317:318   */\n      dup1\n        /* \"#utility.yul\":310:322   */\n      revert\n        /* \"#utility.yul\":334:411   */\n    tag_124:\n        /* \"#utility.yul\":371:378   */\n      0x00\n        /* \"#utility.yul\":400:405   */\n      dup2\n        /* \"#utility.yul\":389:405   */\n      swap1\n      pop\n        /* \"#utility.yul\":334:411   */\n      swap2\n      swap1\n      pop\n      jump\t// out\n        /* \"#utility.yul\":417:539   */\n    tag_125:\n        /* \"#utility.yul\":490:514   */\n      tag_188\n        /* \"#utility.yul\":508:513   */\n      dup2\n        /* \"#utility.yul\":490:514   */\n      tag_124\n      jump\t// in\n    tag_188:\n        /* \"#utility.yul\":483:488   */\n      dup2\n        /* \"#utility.yul\":480:515   */\n      eq\n        /* \"#utility.yul\":470:533   */\n      tag_189\n      jumpi\n        /* \"#utility.yul\":529:530   */\n      0x00\n        /* \"#utility.yul\":526:527   */\n      dup1\n        /* \"#utility.yul\":519:531   */\n      revert\n        /* \"#utility.yul\":470:533   */\n    tag_189:\n        /* \"#utility.yul\":417:539   */\n      pop\n      jump\t// out\n        /* \"#utility.yul\":545:684   */\n    tag_126:\n        /* \"#utility.yul\":591:596   */\n      0x00\n        /* \"#utility.yul\":629:635   */\n      dup2\n        /* \"#utility.yul\":616:636   */\n      calldataload\n        /* \"#utility.yul\":607:636   */\n      swap1\n      pop\n        /* \"#utility.yul\":645:678   */\n      tag_191\n        /* \"#utility.yul\":672:677   */\n      dup2\n        /* \"#utility.yul\":645:678   */\n      tag_125\n      jump\t// in\n    tag_191:\n        /* \"#utility.yul\":545:684   */\n      swap3\n      swap2\n      pop\n      pop\n      jump\t// out\n        /* \"#utility.yul\":690:1019   */\n    tag_17:\n        /* \"#utility.yul\":749:755   */\n      0x00\n        /* \"#utility.yul\":798:800   */\n      0x20\n        /* \"#utility.yul\":786:795   */\n      dup3\n        /* \"#utility.yul\":777:784   */\n      dup5\n        /* \"#utility.yul\":773:796   */\n      sub\n        /* \"#utility.yul\":769:801   */\n      slt\n        /* \"#utility.yul\":766:885   */\n      iszero\n      tag_193\n      jumpi\n        /* \"#utility.yul\":804:883   */\n      tag_194\n      tag_122\n      jump\t// in\n    tag_194:\n        /* \"#utility.yul\":766:885   */\n    tag_193:\n        /* \"#utility.yul\":924:925   */\n      0x00\n        /* \"#utility.yul\":949:1002   */\n      tag_195\n        /* \"#utility.yul\":994:1001   */\n      dup5\n        /* \"#utility.yul\":985:991   */\n      dup3\n        /* \"#utility.yul\":974:983   */\n      dup6\n        /* \"#utility.yul\":970:992   */\n      add\n        /* \"#utility.yul\":949:1002   */\n      tag_126\n      jump\t// in\n    tag_195:\n        /* \"#utility.yul\":939:1002   */\n      swap2\n      pop\n        /* \"#utility.yul\":895:1012   */\n      pop\n        /* \"#utility.yul\":690:1019   */\n      swap3\n      swap2\n      pop\n      pop\n      jump\t// out\n        /* \"#utility.yul\":1025:1143   */\n    tag_127:\n        /* \"#utility.yul\":1112:1136   */\n      tag_197\n        /* \"#utility.yul\":1130:1135   */\n      dup2\n        /* \"#utility.yul\":1112:1136   */\n      tag_124\n      jump\t// in\n    tag_197:\n        /* \"#utility.yul\":1107:1110   */\n      dup3\n        /* \"#utility.yul\":1100:1137   */\n      mstore\n        /* \"#utility.yul\":1025:1143   */\n      pop\n      pop\n      jump\t// out\n        /* \"#utility.yul\":1149:1371   */\n    tag_24:\n        /* \"#utility.yul\":1242:1246   */\n      0x00\n        /* \"#utility.yul\":1280:1282   */\n      0x20\n        /* \"#utility.yul\":1269:1278   */\n      dup3\n        /* \"#utility.yul\":1265:1283   */\n      add\n        /* \"#utility.yul\":1257:1283   */\n      swap1\n      pop\n        /* \"#utility.yul\":1293:1364   */\n      tag_199\n        /* \"#utility.yul\":1361:1362   */\n      0x00\n        /* \"#utility.yul\":1350:1359   */\n      dup4\n        /* \"#utility.yul\":1346:1363   */\n      add\n        /* \"#utility.yul\":1337:1343   */\n      dup5\n        /* \"#utility.yul\":1293:1364   */\n      tag_127\n      jump\t// in\n    tag_199:\n        /* \"#utility.yul\":1149:1371   */\n      swap3\n      swap2\n      pop\n      pop\n      jump\t// out\n        /* \"#utility.yul\":1377:1476   */\n    tag_128:\n        /* \"#utility.yul\":1429:1435   */\n      0x00\n        /* \"#utility.yul\":1463:1468   */\n      dup2\n        /* \"#utility.yul\":1457:1469   */\n      mload\n        /* \"#utility.yul\":1447:1469   */\n      swap1\n      pop\n        /* \"#utility.yul\":1377:1476   */\n      swap2\n      swap1\n      pop\n      jump\t// out\n        /* \"#utility.yul\":1482:1651   */\n    tag_129:\n        /* \"#utility.yul\":1566:1577   */\n      0x00\n        /* \"#utility.yul\":1600:1606   */\n      dup3\n        /* \"#utility.yul\":1595:1598   */\n      dup3\n        /* \"#utility.yul\":1588:1607   */\n      mstore\n        /* \"#utility.yul\":1640:1644   */\n      0x20\n        /* \"#utility.yul\":1635:1638   */\n      dup3\n        /* \"#utility.yul\":1631:1645   */\n      add\n        /* \"#utility.yul\":1616:1645   */\n      swap1\n      pop\n        /* \"#utility.yul\":1482:1651   */\n      swap3\n      swap2\n      pop\n      pop\n      jump\t// out\n        /* \"#utility.yul\":1657:1903   */\n    tag_130:\n        /* \"#utility.yul\":1738:1739   */\n      0x00\n        /* \"#utility.yul\":1748:1861   */\n    tag_203:\n        /* \"#utility.yul\":1762:1768   */\n      dup4\n        /* \"#utility.yul\":1759:1760   */\n      dup2\n        /* \"#utility.yul\":1756:1769   */\n      lt\n        /* \"#utility.yul\":1748:1861   */\n      iszero\n      tag_205\n      jumpi\n        /* \"#utility.yul\":1847:1848   */\n      dup1\n        /* \"#utility.yul\":1842:1845   */\n      dup3\n        /* \"#utility.yul\":1838:1849   */\n      add\n        /* \"#utility.yul\":1832:1850   */\n      mload\n        /* \"#utility.yul\":1828:1829   */\n      dup2\n        /* \"#utility.yul\":1823:1826   */\n      dup5\n        /* \"#utility.yul\":1819:1830   */\n      add\n        /* \"#utility.yul\":1812:1851   */\n      mstore\n        /* \"#utility.yul\":1784:1786   */\n      0x20\n        /* \"#utility.yul\":1781:1782   */\n      dup2\n        /* \"#utility.yul\":1777:1787   */\n      add\n        /* \"#utility.yul\":1772:1787   */\n      swap1\n      pop\n        /* \"#utility.yul\":1748:1861   */\n      jump(tag_203)\n    tag_205:\n        /* \"#utility.yul\":1895:1896   */\n      0x00\n        /* \"#utility.yul\":1886:1892   */\n      dup5\n        /* \"#utility.yul\":1881:1884   */\n      dup5\n        /* \"#utility.yul\":1877:1893   */\n      add\n        /* \"#utility.yul\":1870:1897   */\n      mstore\n        /* \"#utility.yul\":1719:1903   */\n      pop\n        /* \"#utility.yul\":1657:1903   */\n      pop\n      pop\n      pop\n      jump\t// out\n        /* \"#utility.yul\":1909:2011   */\n    tag_131:\n        /* \"#utility.yul\":1950:1956   */\n      0x00\n        /* \"#utility.yul\":2001:2003   */\n      0x1f\n        /* \"#utility.yul\":1997:2004   */\n      not\n        /* \"#utility.yul\":1992:1994   */\n      0x1f\n        /* \"#utility.yul\":1985:1990   */\n      dup4\n        /* \"#utility.yul\":1981:1995   */\n      add\n        /* \"#utility.yul\":1977:2005   */\n      and\n        /* \"#utility.yul\":1967:2005   */\n      swap1\n      pop\n        /* \"#utility.yul\":1909:2011   */\n      swap2\n      swap1\n      pop\n      jump\t// out\n        /* \"#utility.yul\":2017:2394   */\n    tag_132:\n        /* \"#utility.yul\":2105:2108   */\n      0x00\n        /* \"#utility.yul\":2133:2172   */\n      tag_208\n        /* \"#utility.yul\":2166:2171   */\n      dup3\n        /* \"#utility.yul\":2133:2172   */\n      tag_128\n      jump\t// in\n    tag_208:\n        /* \"#utility.yul\":2188:2259   */\n      tag_209\n        /* \"#utility.yul\":2252:2258   */\n      dup2\n        /* \"#utility.yul\":2247:2250   */\n      dup6\n        /* \"#utility.yul\":2188:2259   */\n      tag_129\n      jump\t// in\n    tag_209:\n        /* \"#utility.yul\":2181:2259   */\n      swap4\n      pop\n        /* \"#utility.yul\":2268:2333   */\n      tag_210\n        /* \"#utility.yul\":2326:2332   */\n      dup2\n        /* \"#utility.yul\":2321:2324   */\n      dup6\n        /* \"#utility.yul\":2314:2318   */\n      0x20\n        /* \"#utility.yul\":2307:2312   */\n      dup7\n        /* \"#utility.yul\":2303:2319   */\n      add\n        /* \"#utility.yul\":2268:2333   */\n      tag_130\n      jump\t// in\n    tag_210:\n        /* \"#utility.yul\":2358:2387   */\n      tag_211\n        /* \"#utility.yul\":2380:2386   */\n      dup2\n        /* \"#utility.yul\":2358:2387   */\n      tag_131\n      jump\t// in\n    tag_211:\n        /* \"#utility.yul\":2353:2356   */\n      dup5\n        /* \"#utility.yul\":2349:2388   */\n      add\n        /* \"#utility.yul\":2342:2388   */\n      swap2\n      pop\n        /* \"#utility.yul\":2109:2394   */\n      pop\n        /* \"#utility.yul\":2017:2394   */\n      swap3\n      swap2\n      pop\n      pop\n      jump\t// out\n        /* \"#utility.yul\":2400:2933   */\n    tag_29:\n        /* \"#utility.yul\":2569:2573   */\n      0x00\n        /* \"#utility.yul\":2607:2609   */\n      0x60\n        /* \"#utility.yul\":2596:2605   */\n      dup3\n        /* \"#utility.yul\":2592:2610   */\n      add\n        /* \"#utility.yul\":2584:2610   */\n      swap1\n      pop\n        /* \"#utility.yul\":2620:2691   */\n      tag_213\n        /* \"#utility.yul\":2688:2689   */\n      0x00\n        /* \"#utility.yul\":2677:2686   */\n      dup4\n        /* \"#utility.yul\":2673:2690   */\n      add\n        /* \"#utility.yul\":2664:2670   */\n      dup7\n        /* \"#utility.yul\":2620:2691   */\n      tag_127\n      jump\t// in\n    tag_213:\n        /* \"#utility.yul\":2738:2747   */\n      dup2\n        /* \"#utility.yul\":2732:2736   */\n      dup2\n        /* \"#utility.yul\":2728:2748   */\n      sub\n        /* \"#utility.yul\":2723:2725   */\n      0x20\n        /* \"#utility.yul\":2712:2721   */\n      dup4\n        /* \"#utility.yul\":2708:2726   */\n      add\n        /* \"#utility.yul\":2701:2749   */\n      mstore\n        /* \"#utility.yul\":2766:2844   */\n      tag_214\n        /* \"#utility.yul\":2839:2843   */\n      dup2\n        /* \"#utility.yul\":2830:2836   */\n      dup6\n        /* \"#utility.yul\":2766:2844   */\n      tag_132\n      jump\t// in\n    tag_214:\n        /* \"#utility.yul\":2758:2844   */\n      swap1\n      pop\n        /* \"#utility.yul\":2854:2926   */\n      tag_215\n        /* \"#utility.yul\":2922:2924   */\n      0x40\n        /* \"#utility.yul\":2911:2920   */\n      dup4\n        /* \"#utility.yul\":2907:2925   */\n      add\n        /* \"#utility.yul\":2898:2904   */\n      dup5\n        /* \"#utility.yul\":2854:2926   */\n      tag_127\n      jump\t// in\n    tag_215:\n        /* \"#utility.yul\":2400:2933   */\n      swap5\n      swap4\n      pop\n      pop\n      pop\n      pop\n      jump\t// out\n        /* \"#utility.yul\":2939:3065   */\n    tag_133:\n        /* \"#utility.yul\":2976:2983   */\n      0x00\n        /* \"#utility.yul\":3016:3058   */\n      0xffffffffffffffffffffffffffffffffffffffff\n        /* \"#utility.yul\":3009:3014   */\n      dup3\n        /* \"#utility.yul\":3005:3059   */\n      and\n        /* \"#utility.yul\":2994:3059   */\n      swap1\n      pop\n        /* \"#utility.yul\":2939:3065   */\n      swap2\n      swap1\n      pop\n      jump\t// out\n        /* \"#utility.yul\":3071:3167   */\n    tag_134:\n        /* \"#utility.yul\":3108:3115   */\n      0x00\n        /* \"#utility.yul\":3137:3161   */\n      tag_218\n        /* \"#utility.yul\":3155:3160   */\n      dup3\n        /* \"#utility.yul\":3137:3161   */\n      tag_133\n      jump\t// in\n    tag_218:\n        /* \"#utility.yul\":3126:3161   */\n      swap1\n      pop\n        /* \"#utility.yul\":3071:3167   */\n      swap2\n      swap1\n      pop\n      jump\t// out\n        /* \"#utility.yul\":3173:3295   */\n    tag_135:\n        /* \"#utility.yul\":3246:3270   */\n      tag_220\n        /* \"#utility.yul\":3264:3269   */\n      dup2\n        /* \"#utility.yul\":3246:3270   */\n      tag_134\n      jump\t// in\n    tag_220:\n        /* \"#utility.yul\":3239:3244   */\n      dup2\n        /* \"#utility.yul\":3236:3271   */\n      eq\n        /* \"#utility.yul\":3226:3289   */\n      tag_221\n      jumpi\n        /* \"#utility.yul\":3285:3286   */\n      0x00\n        /* \"#utility.yul\":3282:3283   */\n      dup1\n        /* \"#utility.yul\":3275:3287   */\n      revert\n        /* \"#utility.yul\":3226:3289   */\n    tag_221:\n        /* \"#utility.yul\":3173:3295   */\n      pop\n      jump\t// out\n        /* \"#utility.yul\":3301:3440   */\n    tag_136:\n        /* \"#utility.yul\":3347:3352   */\n      0x00\n        /* \"#utility.yul\":3385:3391   */\n      dup2\n        /* \"#utility.yul\":3372:3392   */\n      calldataload\n        /* \"#utility.yul\":3363:3392   */\n      swap1\n      pop\n        /* \"#utility.yul\":3401:3434   */\n      tag_223\n        /* \"#utility.yul\":3428:3433   */\n      dup2\n        /* \"#utility.yul\":3401:3434   */\n      tag_135\n      jump\t// in\n    tag_223:\n        /* \"#utility.yul\":3301:3440   */\n      swap3\n      swap2\n      pop\n      pop\n      jump\t// out\n        /* \"#utility.yul\":3446:3775   */\n    tag_32:\n        /* \"#utility.yul\":3505:3511   */\n      0x00\n        /* \"#utility.yul\":3554:3556   */\n      0x20\n        /* \"#utility.yul\":3542:3551   */\n      dup3\n        /* \"#utility.yul\":3533:3540   */\n      dup5\n        /* \"#utility.yul\":3529:3552   */\n      sub\n        /* \"#utility.yul\":3525:3557   */\n      slt\n        /* \"#utility.yul\":3522:3641   */\n      iszero\n      tag_225\n      jumpi\n        /* \"#utility.yul\":3560:3639   */\n      tag_226\n      tag_122\n      jump\t// in\n    tag_226:\n        /* \"#utility.yul\":3522:3641   */\n    tag_225:\n        /* \"#utility.yul\":3680:3681   */\n      0x00\n        /* \"#utility.yul\":3705:3758   */\n      tag_227\n        /* \"#utility.yul\":3750:3757   */\n      dup5\n        /* \"#utility.yul\":3741:3747   */\n      dup3\n        /* \"#utility.yul\":3730:3739   */\n      dup6\n        /* \"#utility.yul\":3726:3748   */\n      add\n        /* \"#utility.yul\":3705:3758   */\n      tag_136\n      jump\t// in\n    tag_227:\n        /* \"#utility.yul\":3695:3758   */\n      swap2\n      pop\n        /* \"#utility.yul\":3651:3768   */\n      pop\n        /* \"#utility.yul\":3446:3775   */\n      swap3\n      swap2\n      pop\n      pop\n      jump\t// out\n        /* \"#utility.yul\":3781:3898   */\n    tag_137:\n        /* \"#utility.yul\":3890:3891   */\n      0x00\n        /* \"#utility.yul\":3887:3888   */\n      dup1\n        /* \"#utility.yul\":3880:3892   */\n      revert\n        /* \"#utility.yul\":3904:4021   */\n    tag_138:\n        /* \"#utility.yul\":4013:4014   */\n      0x00\n        /* \"#utility.yul\":4010:4011   */\n      dup1\n        /* \"#utility.yul\":4003:4015   */\n      revert\n        /* \"#utility.yul\":4027:4207   */\n    tag_139:\n        /* \"#utility.yul\":4075:4152   */\n      0x4e487b7100000000000000000000000000000000000000000000000000000000\n        /* \"#utility.yul\":4072:4073   */\n      0x00\n        /* \"#utility.yul\":4065:4153   */\n      mstore\n        /* \"#utility.yul\":4172:4176   */\n      0x41\n        /* \"#utility.yul\":4169:4170   */\n      0x04\n        /* \"#utility.yul\":4162:4177   */\n      mstore\n        /* \"#utility.yul\":4196:4200   */\n      0x24\n        /* \"#utility.yul\":4193:4194   */\n      0x00\n        /* \"#utility.yul\":4186:4201   */\n      revert\n        /* \"#utility.yul\":4213:4494   */\n    tag_140:\n        /* \"#utility.yul\":4296:4323   */\n      tag_232\n        /* \"#utility.yul\":4318:4322   */\n      dup3\n        /* \"#utility.yul\":4296:4323   */\n      tag_131\n      jump\t// in\n    tag_232:\n        /* \"#utility.yul\":4288:4294   */\n      dup2\n        /* \"#utility.yul\":4284:4324   */\n      add\n        /* \"#utility.yul\":4426:4432   */\n      dup2\n        /* \"#utility.yul\":4414:4424   */\n      dup2\n        /* \"#utility.yul\":4411:4433   */\n      lt\n        /* \"#utility.yul\":4390:4408   */\n      0xffffffffffffffff\n        /* \"#utility.yul\":4378:4388   */\n      dup3\n        /* \"#utility.yul\":4375:4409   */\n      gt\n        /* \"#utility.yul\":4372:4434   */\n      or\n        /* \"#utility.yul\":4369:4457   */\n      iszero\n      tag_233\n      jumpi\n        /* \"#utility.yul\":4437:4455   */\n      tag_234\n      tag_139\n      jump\t// in\n    tag_234:\n        /* \"#utility.yul\":4369:4457   */\n    tag_233:\n        /* \"#utility.yul\":4477:4487   */\n      dup1\n        /* \"#utility.yul\":4473:4475   */\n      0x40\n        /* \"#utility.yul\":4466:4488   */\n      mstore\n        /* \"#utility.yul\":4256:4494   */\n      pop\n        /* \"#utility.yul\":4213:4494   */\n      pop\n      pop\n      jump\t// out\n        /* \"#utility.yul\":4500:4629   */\n    tag_141:\n        /* \"#utility.yul\":4534:4540   */\n      0x00\n        /* \"#utility.yul\":4561:4581   */\n      tag_236\n      tag_121\n      jump\t// in\n    tag_236:\n        /* \"#utility.yul\":4551:4581   */\n      swap1\n      pop\n        /* \"#utility.yul\":4590:4623   */\n      tag_237\n        /* \"#utility.yul\":4618:4622   */\n      dup3\n        /* \"#utility.yul\":4610:4616   */\n      dup3\n        /* \"#utility.yul\":4590:4623   */\n      tag_140\n      jump\t// in\n    tag_237:\n        /* \"#utility.yul\":4500:4629   */\n      swap2\n      swap1\n      pop\n      jump\t// out\n        /* \"#utility.yul\":4635:4943   */\n    tag_142:\n        /* \"#utility.yul\":4697:4701   */\n      0x00\n        /* \"#utility.yul\":4787:4805   */\n      0xffffffffffffffff\n        /* \"#utility.yul\":4779:4785   */\n      dup3\n        /* \"#utility.yul\":4776:4806   */\n      gt\n        /* \"#utility.yul\":4773:4829   */\n      iszero\n      tag_239\n      jumpi\n        /* \"#utility.yul\":4809:4827   */\n      tag_240\n      tag_139\n      jump\t// in\n    tag_240:\n        /* \"#utility.yul\":4773:4829   */\n    tag_239:\n        /* \"#utility.yul\":4847:4876   */\n      tag_241\n        /* \"#utility.yul\":4869:4875   */\n      dup3\n        /* \"#utility.yul\":4847:4876   */\n      tag_131\n      jump\t// in\n    tag_241:\n        /* \"#utility.yul\":4839:4876   */\n      swap1\n      pop\n        /* \"#utility.yul\":4931:4935   */\n      0x20\n        /* \"#utility.yul\":4925:4929   */\n      dup2\n        /* \"#utility.yul\":4921:4936   */\n      add\n        /* \"#utility.yul\":4913:4936   */\n      swap1\n      pop\n        /* \"#utility.yul\":4635:4943   */\n      swap2\n      swap1\n      pop\n      jump\t// out\n        /* \"#utility.yul\":4949:5095   */\n    tag_143:\n        /* \"#utility.yul\":5046:5052   */\n      dup3\n        /* \"#utility.yul\":5041:5044   */\n      dup2\n        /* \"#utility.yul\":5036:5039   */\n      dup4\n        /* \"#utility.yul\":5023:5053   */\n      calldatacopy\n        /* \"#utility.yul\":5087:5088   */\n      0x00\n        /* \"#utility.yul\":5078:5084   */\n      dup4\n        /* \"#utility.yul\":5073:5076   */\n      dup4\n        /* \"#utility.yul\":5069:5085   */\n      add\n        /* \"#utility.yul\":5062:5089   */\n      mstore\n        /* \"#utility.yul\":4949:5095   */\n      pop\n      pop\n      pop\n      jump\t// out\n        /* \"#utility.yul\":5101:5526   */\n    tag_144:\n        /* \"#utility.yul\":5179:5184   */\n      0x00\n        /* \"#utility.yul\":5204:5270   */\n      tag_244\n        /* \"#utility.yul\":5220:5269   */\n      tag_245\n        /* \"#utility.yul\":5262:5268   */\n      dup5\n        /* \"#utility.yul\":5220:5269   */\n      tag_142\n      jump\t// in\n    tag_245:\n        /* \"#utility.yul\":5204:5270   */\n      tag_141\n      jump\t// in\n    tag_244:\n        /* \"#utility.yul\":5195:5270   */\n      swap1\n      pop\n        /* \"#utility.yul\":5293:5299   */\n      dup3\n        /* \"#utility.yul\":5286:5291   */\n      dup2\n        /* \"#utility.yul\":5279:5300   */\n      mstore\n        /* \"#utility.yul\":5331:5335   */\n      0x20\n        /* \"#utility.yul\":5324:5329   */\n      dup2\n        /* \"#utility.yul\":5320:5336   */\n      add\n        /* \"#utility.yul\":5369:5372   */\n      dup5\n        /* \"#utility.yul\":5360:5366   */\n      dup5\n        /* \"#utility.yul\":5355:5358   */\n      dup5\n        /* \"#utility.yul\":5351:5367   */\n      add\n        /* \"#utility.yul\":5348:5373   */\n      gt\n        /* \"#utility.yul\":5345:5457   */\n      iszero\n      tag_246\n      jumpi\n        /* \"#utility.yul\":5376:5455   */\n      tag_247\n      tag_138\n      jump\t// in\n    tag_247:\n        /* \"#utility.yul\":5345:5457   */\n    tag_246:\n        /* \"#utility.yul\":5466:5520   */\n      tag_248\n        /* \"#utility.yul\":5513:5519   */\n      dup5\n        /* \"#utility.yul\":5508:5511   */\n      dup3\n        /* \"#utility.yul\":5503:5506   */\n      dup6\n        /* \"#utility.yul\":5466:5520   */\n      tag_143\n      jump\t// in\n    tag_248:\n        /* \"#utility.yul\":5185:5526   */\n      pop\n        /* \"#utility.yul\":5101:5526   */\n      swap4\n      swap3\n      pop\n      pop\n      pop\n      jump\t// out\n        /* \"#utility.yul\":5546:5886   */\n    tag_145:\n        /* \"#utility.yul\":5602:5607   */\n      0x00\n        /* \"#utility.yul\":5651:5654   */\n      dup3\n        /* \"#utility.yul\":5644:5648   */\n      0x1f\n        /* \"#utility.yul\":5636:5642   */\n      dup4\n        /* \"#utility.yul\":5632:5649   */\n      add\n        /* \"#utility.yul\":5628:5655   */\n      slt\n        /* \"#utility.yul\":5618:5740   */\n      tag_250\n      jumpi\n        /* \"#utility.yul\":5659:5738   */\n      tag_251\n      tag_137\n      jump\t// in\n    tag_251:\n        /* \"#utility.yul\":5618:5740   */\n    tag_250:\n        /* \"#utility.yul\":5776:5782   */\n      dup2\n        /* \"#utility.yul\":5763:5783   */\n      calldataload\n        /* \"#utility.yul\":5801:5880   */\n      tag_252\n        /* \"#utility.yul\":5876:5879   */\n      dup5\n        /* \"#utility.yul\":5868:5874   */\n      dup3\n        /* \"#utility.yul\":5861:5865   */\n      0x20\n        /* \"#utility.yul\":5853:5859   */\n      dup7\n        /* \"#utility.yul\":5849:5866   */\n      add\n        /* \"#utility.yul\":5801:5880   */\n      tag_144\n      jump\t// in\n    tag_252:\n        /* \"#utility.yul\":5792:5880   */\n      swap2\n      pop\n        /* \"#utility.yul\":5608:5886   */\n      pop\n        /* \"#utility.yul\":5546:5886   */\n      swap3\n      swap2\n      pop\n      pop\n      jump\t// out\n        /* \"#utility.yul\":5892:6401   */\n    tag_36:\n        /* \"#utility.yul\":5961:5967   */\n      0x00\n        /* \"#utility.yul\":6010:6012   */\n      0x20\n        /* \"#utility.yul\":5998:6007   */\n      dup3\n        /* \"#utility.yul\":5989:5996   */\n      dup5\n        /* \"#utility.yul\":5985:6008   */\n      sub\n        /* \"#utility.yul\":5981:6013   */\n      slt\n        /* \"#utility.yul\":5978:6097   */\n      iszero\n      tag_254\n      jumpi\n        /* \"#utility.yul\":6016:6095   */\n      tag_255\n      tag_122\n      jump\t// in\n    tag_255:\n        /* \"#utility.yul\":5978:6097   */\n    tag_254:\n        /* \"#utility.yul\":6164:6165   */\n      0x00\n        /* \"#utility.yul\":6153:6162   */\n      dup3\n        /* \"#utility.yul\":6149:6166   */\n      add\n        /* \"#utility.yul\":6136:6167   */\n      calldataload\n        /* \"#utility.yul\":6194:6212   */\n      0xffffffffffffffff\n        /* \"#utility.yul\":6186:6192   */\n      dup2\n        /* \"#utility.yul\":6183:6213   */\n      gt\n        /* \"#utility.yul\":6180:6297   */\n      iszero\n      tag_256\n      jumpi\n        /* \"#utility.yul\":6216:6295   */\n      tag_257\n      tag_123\n      jump\t// in\n    tag_257:\n        /* \"#utility.yul\":6180:6297   */\n    tag_256:\n        /* \"#utility.yul\":6321:6384   */\n      tag_258\n        /* \"#utility.yul\":6376:6383   */\n      dup5\n        /* \"#utility.yul\":6367:6373   */\n      dup3\n        /* \"#utility.yul\":6356:6365   */\n      dup6\n        /* \"#utility.yul\":6352:6374   */\n      add\n        /* \"#utility.yul\":6321:6384   */\n      tag_145\n      jump\t// in\n    tag_258:\n        /* \"#utility.yul\":6311:6384   */\n      swap2\n      pop\n        /* \"#utility.yul\":6107:6394   */\n      pop\n        /* \"#utility.yul\":5892:6401   */\n      swap3\n      swap2\n      pop\n      pop\n      jump\t// out\n        /* \"#utility.yul\":6407:6497   */\n    tag_146:\n        /* \"#utility.yul\":6441:6448   */\n      0x00\n        /* \"#utility.yul\":6484:6489   */\n      dup2\n        /* \"#utility.yul\":6477:6490   */\n      iszero\n        /* \"#utility.yul\":6470:6491   */\n      iszero\n        /* \"#utility.yul\":6459:6491   */\n      swap1\n      pop\n        /* \"#utility.yul\":6407:6497   */\n      swap2\n      swap1\n      pop\n      jump\t// out\n        /* \"#utility.yul\":6503:6612   */\n    tag_147:\n        /* \"#utility.yul\":6584:6605   */\n      tag_261\n        /* \"#utility.yul\":6599:6604   */\n      dup2\n        /* \"#utility.yul\":6584:6605   */\n      tag_146\n      jump\t// in\n    tag_261:\n        /* \"#utility.yul\":6579:6582   */\n      dup3\n        /* \"#utility.yul\":6572:6606   */\n      mstore\n        /* \"#utility.yul\":6503:6612   */\n      pop\n      pop\n      jump\t// out\n        /* \"#utility.yul\":6618:6828   */\n    tag_41:\n        /* \"#utility.yul\":6705:6709   */\n      0x00\n        /* \"#utility.yul\":6743:6745   */\n      0x20\n        /* \"#utility.yul\":6732:6741   */\n      dup3\n        /* \"#utility.yul\":6728:6746   */\n      add\n        /* \"#utility.yul\":6720:6746   */\n      swap1\n      pop\n        /* \"#utility.yul\":6756:6821   */\n      tag_263\n        /* \"#utility.yul\":6818:6819   */\n      0x00\n        /* \"#utility.yul\":6807:6816   */\n      dup4\n        /* \"#utility.yul\":6803:6820   */\n      add\n        /* \"#utility.yul\":6794:6800   */\n      dup5\n        /* \"#utility.yul\":6756:6821   */\n      tag_147\n      jump\t// in\n    tag_263:\n        /* \"#utility.yul\":6618:6828   */\n      swap3\n      swap2\n      pop\n      pop\n      jump\t// out\n        /* \"#utility.yul\":6834:7142   */\n    tag_46:\n        /* \"#utility.yul\":6943:6947   */\n      0x00\n        /* \"#utility.yul\":6981:6983   */\n      0x40\n        /* \"#utility.yul\":6970:6979   */\n      dup3\n        /* \"#utility.yul\":6966:6984   */\n      add\n        /* \"#utility.yul\":6958:6984   */\n      swap1\n      pop\n        /* \"#utility.yul\":6994:7059   */\n      tag_265\n        /* \"#utility.yul\":7056:7057   */\n      0x00\n        /* \"#utility.yul\":7045:7054   */\n      dup4\n        /* \"#utility.yul\":7041:7058   */\n      add\n        /* \"#utility.yul\":7032:7038   */\n      dup6\n        /* \"#utility.yul\":6994:7059   */\n      tag_147\n      jump\t// in\n    tag_265:\n        /* \"#utility.yul\":7069:7135   */\n      tag_266\n        /* \"#utility.yul\":7131:7133   */\n      0x20\n        /* \"#utility.yul\":7120:7129   */\n      dup4\n        /* \"#utility.yul\":7116:7134   */\n      add\n        /* \"#utility.yul\":7107:7113   */\n      dup5\n        /* \"#utility.yul\":7069:7135   */\n      tag_147\n      jump\t// in\n    tag_266:\n        /* \"#utility.yul\":6834:7142   */\n      swap4\n      swap3\n      pop\n      pop\n      pop\n      jump\t// out\n        /* \"#utility.yul\":7148:7266   */\n    tag_148:\n        /* \"#utility.yul\":7235:7259   */\n      tag_268\n        /* \"#utility.yul\":7253:7258   */\n      dup2\n        /* \"#utility.yul\":7235:7259   */\n      tag_134\n      jump\t// in\n    tag_268:\n        /* \"#utility.yul\":7230:7233   */\n      dup3\n        /* \"#utility.yul\":7223:7260   */\n      mstore\n        /* \"#utility.yul\":7148:7266   */\n      pop\n      pop\n      jump\t// out\n        /* \"#utility.yul\":7272:7494   */\n    tag_55:\n        /* \"#utility.yul\":7365:7369   */\n      0x00\n        /* \"#utility.yul\":7403:7405   */\n      0x20\n        /* \"#utility.yul\":7392:7401   */\n      dup3\n        /* \"#utility.yul\":7388:7406   */\n      add\n        /* \"#utility.yul\":7380:7406   */\n      swap1\n      pop\n        /* \"#utility.yul\":7416:7487   */\n      tag_270\n        /* \"#utility.yul\":7484:7485   */\n      0x00\n        /* \"#utility.yul\":7473:7482   */\n      dup4\n        /* \"#utility.yul\":7469:7486   */\n      add\n        /* \"#utility.yul\":7460:7466   */\n      dup5\n        /* \"#utility.yul\":7416:7487   */\n      tag_148\n      jump\t// in\n    tag_270:\n        /* \"#utility.yul\":7272:7494   */\n      swap3\n      swap2\n      pop\n      pop\n      jump\t// out\n        /* \"#utility.yul\":7500:7668   */\n    tag_149:\n        /* \"#utility.yul\":7640:7660   */\n      0x566f74696e67206973206e6f74206f70656e0000000000000000000000000000\n        /* \"#utility.yul\":7636:7637   */\n      0x00\n        /* \"#utility.yul\":7628:7634   */\n      dup3\n        /* \"#utility.yul\":7624:7638   */\n      add\n        /* \"#utility.yul\":7617:7661   */\n      mstore\n        /* \"#utility.yul\":7500:7668   */\n      pop\n      jump\t// out\n        /* \"#utility.yul\":7674:8040   */\n    tag_150:\n        /* \"#utility.yul\":7816:7819   */\n      0x00\n        /* \"#utility.yul\":7837:7904   */\n      tag_273\n        /* \"#utility.yul\":7901:7903   */\n      0x12\n        /* \"#utility.yul\":7896:7899   */\n      dup4\n        /* \"#utility.yul\":7837:7904   */\n      tag_129\n      jump\t// in\n    tag_273:\n        /* \"#utility.yul\":7830:7904   */\n      swap2\n      pop\n        /* \"#utility.yul\":7913:8006   */\n      tag_274\n        /* \"#utility.yul\":8002:8005   */\n      dup3\n        /* \"#utility.yul\":7913:8006   */\n      tag_149\n      jump\t// in\n    tag_274:\n        /* \"#utility.yul\":8031:8033   */\n      0x20\n        /* \"#utility.yul\":8026:8029   */\n      dup3\n        /* \"#utility.yul\":8022:8034   */\n      add\n        /* \"#utility.yul\":8015:8034   */\n      swap1\n      pop\n        /* \"#utility.yul\":7674:8040   */\n      swap2\n      swap1\n      pop\n      jump\t// out\n        /* \"#utility.yul\":8046:8465   */\n    tag_59:\n        /* \"#utility.yul\":8212:8216   */\n      0x00\n        /* \"#utility.yul\":8250:8252   */\n      0x20\n        /* \"#utility.yul\":8239:8248   */\n      dup3\n        /* \"#utility.yul\":8235:8253   */\n      add\n        /* \"#utility.yul\":8227:8253   */\n      swap1\n      pop\n        /* \"#utility.yul\":8299:8308   */\n      dup2\n        /* \"#utility.yul\":8293:8297   */\n      dup2\n        /* \"#utility.yul\":8289:8309   */\n      sub\n        /* \"#utility.yul\":8285:8286   */\n      0x00\n        /* \"#utility.yul\":8274:8283   */\n      dup4\n        /* \"#utility.yul\":8270:8287   */\n      add\n        /* \"#utility.yul\":8263:8310   */\n      mstore\n        /* \"#utility.yul\":8327:8458   */\n      tag_276\n        /* \"#utility.yul\":8453:8457   */\n      dup2\n        /* \"#utility.yul\":8327:8458   */\n      tag_150\n      jump\t// in\n    tag_276:\n        /* \"#utility.yul\":8319:8458   */\n      swap1\n      pop\n        /* \"#utility.yul\":8046:8465   */\n      swap2\n      swap1\n      pop\n      jump\t// out\n        /* \"#utility.yul\":8471:8641   */\n    tag_151:\n        /* \"#utility.yul\":8611:8633   */\n      0x566f746572206e6f742072656769737465726564000000000000000000000000\n        /* \"#utility.yul\":8607:8608   */\n      0x00\n        /* \"#utility.yul\":8599:8605   */\n      dup3\n        /* \"#utility.yul\":8595:8609   */\n      add\n        /* \"#utility.yul\":8588:8634   */\n      mstore\n        /* \"#utility.yul\":8471:8641   */\n      pop\n      jump\t// out\n        /* \"#utility.yul\":8647:9013   */\n    tag_152:\n        /* \"#utility.yul\":8789:8792   */\n      0x00\n        /* \"#utility.yul\":8810:8877   */\n      tag_279\n        /* \"#utility.yul\":8874:8876   */\n      0x14\n        /* \"#utility.yul\":8869:8872   */\n      dup4\n        /* \"#utility.yul\":8810:8877   */\n      tag_129\n      jump\t// in\n    tag_279:\n        /* \"#utility.yul\":8803:8877   */\n      swap2\n      pop\n        /* \"#utility.yul\":8886:8979   */\n      tag_280\n        /* \"#utility.yul\":8975:8978   */\n      dup3\n        /* \"#utility.yul\":8886:8979   */\n      tag_151\n      jump\t// in\n    tag_280:\n        /* \"#utility.yul\":9004:9006   */\n      0x20\n        /* \"#utility.yul\":8999:9002   */\n      dup3\n        /* \"#utility.yul\":8995:9007   */\n      add\n        /* \"#utility.yul\":8988:9007   */\n      swap1\n      pop\n        /* \"#utility.yul\":8647:9013   */\n      swap2\n      swap1\n      pop\n      jump\t// out\n        /* \"#utility.yul\":9019:9438   */\n    tag_63:\n        /* \"#utility.yul\":9185:9189   */\n      0x00\n        /* \"#utility.yul\":9223:9225   */\n      0x20\n        /* \"#utility.yul\":9212:9221   */\n      dup3\n        /* \"#utility.yul\":9208:9226   */\n      add\n        /* \"#utility.yul\":9200:9226   */\n      swap1\n      pop\n        /* \"#utility.yul\":9272:9281   */\n      dup2\n        /* \"#utility.yul\":9266:9270   */\n      dup2\n        /* \"#utility.yul\":9262:9282   */\n      sub\n        /* \"#utility.yul\":9258:9259   */\n      0x00\n        /* \"#utility.yul\":9247:9256   */\n      dup4\n        /* \"#utility.yul\":9243:9260   */\n      add\n        /* \"#utility.yul\":9236:9283   */\n      mstore\n        /* \"#utility.yul\":9300:9431   */\n      tag_282\n        /* \"#utility.yul\":9426:9430   */\n      dup2\n        /* \"#utility.yul\":9300:9431   */\n      tag_152\n      jump\t// in\n    tag_282:\n        /* \"#utility.yul\":9292:9431   */\n      swap1\n      pop\n        /* \"#utility.yul\":9019:9438   */\n      swap2\n      swap1\n      pop\n      jump\t// out\n        /* \"#utility.yul\":9444:9607   */\n    tag_153:\n        /* \"#utility.yul\":9584:9599   */\n      0x416c726561647920766f74656400000000000000000000000000000000000000\n        /* \"#utility.yul\":9580:9581   */\n      0x00\n        /* \"#utility.yul\":9572:9578   */\n      dup3\n        /* \"#utility.yul\":9568:9582   */\n      add\n        /* \"#utility.yul\":9561:9600   */\n      mstore\n        /* \"#utility.yul\":9444:9607   */\n      pop\n      jump\t// out\n        /* \"#utility.yul\":9613:9979   */\n    tag_154:\n        /* \"#utility.yul\":9755:9758   */\n      0x00\n        /* \"#utility.yul\":9776:9843   */\n      tag_285\n        /* \"#utility.yul\":9840:9842   */\n      0x0d\n        /* \"#utility.yul\":9835:9838   */\n      dup4\n        /* \"#utility.yul\":9776:9843   */\n      tag_129\n      jump\t// in\n    tag_285:\n        /* \"#utility.yul\":9769:9843   */\n      swap2\n      pop\n        /* \"#utility.yul\":9852:9945   */\n      tag_286\n        /* \"#utility.yul\":9941:9944   */\n      dup3\n        /* \"#utility.yul\":9852:9945   */\n      tag_153\n      jump\t// in\n    tag_286:\n        /* \"#utility.yul\":9970:9972   */\n      0x20\n        /* \"#utility.yul\":9965:9968   */\n      dup3\n        /* \"#utility.yul\":9961:9973   */\n      add\n        /* \"#utility.yul\":9954:9973   */\n      swap1\n      pop\n        /* \"#utility.yul\":9613:9979   */\n      swap2\n      swap1\n      pop\n      jump\t// out\n        /* \"#utility.yul\":9985:10404   */\n    tag_66:\n        /* \"#utility.yul\":10151:10155   */\n      0x00\n        /* \"#utility.yul\":10189:10191   */\n      0x20\n        /* \"#utility.yul\":10178:10187   */\n      dup3\n        /* \"#utility.yul\":10174:10192   */\n      add\n        /* \"#utility.yul\":10166:10192   */\n      swap1\n      pop\n        /* \"#utility.yul\":10238:10247   */\n      dup2\n        /* \"#utility.yul\":10232:10236   */\n      dup2\n        /* \"#utility.yul\":10228:10248   */\n      sub\n        /* \"#utility.yul\":10224:10225   */\n      0x00\n        /* \"#utility.yul\":10213:10222   */\n      dup4\n        /* \"#utility.yul\":10209:10226   */\n      add\n        /* \"#utility.yul\":10202:10249   */\n      mstore\n        /* \"#utility.yul\":10266:10397   */\n      tag_288\n        /* \"#utility.yul\":10392:10396   */\n      dup2\n        /* \"#utility.yul\":10266:10397   */\n      tag_154\n      jump\t// in\n    tag_288:\n        /* \"#utility.yul\":10258:10397   */\n      swap1\n      pop\n        /* \"#utility.yul\":9985:10404   */\n      swap2\n      swap1\n      pop\n      jump\t// out\n        /* \"#utility.yul\":10410:10577   */\n    tag_155:\n        /* \"#utility.yul\":10550:10569   */\n      0x496e76616c69642063616e646964617465000000000000000000000000000000\n        /* \"#utility.yul\":10546:10547   */\n      0x00\n        /* \"#utility.yul\":10538:10544   */\n      dup3\n        /* \"#utility.yul\":10534:10548   */\n      add\n        /* \"#utility.yul\":10527:10570   */\n      mstore\n        /* \"#utility.yul\":10410:10577   */\n      pop\n      jump\t// out\n        /* \"#utility.yul\":10583:10949   */\n    tag_156:\n        /* \"#utility.yul\":10725:10728   */\n      0x00\n        /* \"#utility.yul\":10746:10813   */\n      tag_291\n        /* \"#utility.yul\":10810:10812   */\n      0x11\n        /* \"#utility.yul\":10805:10808   */\n      dup4\n        /* \"#utility.yul\":10746:10813   */\n      tag_129\n      jump\t// in\n    tag_291:\n        /* \"#utility.yul\":10739:10813   */\n      swap2\n      pop\n        /* \"#utility.yul\":10822:10915   */\n      tag_292\n        /* \"#utility.yul\":10911:10914   */\n      dup3\n        /* \"#utility.yul\":10822:10915   */\n      tag_155\n      jump\t// in\n    tag_292:\n        /* \"#utility.yul\":10940:10942   */\n      0x20\n        /* \"#utility.yul\":10935:10938   */\n      dup3\n        /* \"#utility.yul\":10931:10943   */\n      add\n        /* \"#utility.yul\":10924:10943   */\n      swap1\n      pop\n        /* \"#utility.yul\":10583:10949   */\n      swap2\n      swap1\n      pop\n      jump\t// out\n        /* \"#utility.yul\":10955:11374   */\n    tag_69:\n        /* \"#utility.yul\":11121:11125   */\n      0x00\n        /* \"#utility.yul\":11159:11161   */\n      0x20\n        /* \"#utility.yul\":11148:11157   */\n      dup3\n        /* \"#utility.yul\":11144:11162   */\n      add\n        /* \"#utility.yul\":11136:11162   */\n      swap1\n      pop\n        /* \"#utility.yul\":11208:11217   */\n      dup2\n        /* \"#utility.yul\":11202:11206   */\n      dup2\n        /* \"#utility.yul\":11198:11218   */\n      sub\n        /* \"#utility.yul\":11194:11195   */\n      0x00\n        /* \"#utility.yul\":11183:11192   */\n      dup4\n        /* \"#utility.yul\":11179:11196   */\n      add\n        /* \"#utility.yul\":11172:11219   */\n      mstore\n        /* \"#utility.yul\":11236:11367   */\n      tag_294\n        /* \"#utility.yul\":11362:11366   */\n      dup2\n        /* \"#utility.yul\":11236:11367   */\n      tag_156\n      jump\t// in\n    tag_294:\n        /* \"#utility.yul\":11228:11367   */\n      swap1\n      pop\n        /* \"#utility.yul\":10955:11374   */\n      swap2\n      swap1\n      pop\n      jump\t// out\n        /* \"#utility.yul\":11380:11560   */\n    tag_72:\n        /* \"#utility.yul\":11428:11505   */\n      0x4e487b7100000000000000000000000000000000000000000000000000000000\n        /* \"#utility.yul\":11425:11426   */\n      0x00\n        /* \"#utility.yul\":11418:11506   */\n      mstore\n        /* \"#utility.yul\":11525:11529   */\n      0x32\n        /* \"#utility.yul\":11522:11523   */\n      0x04\n        /* \"#utility.yul\":11515:11530   */\n      mstore\n        /* \"#utility.yul\":11549:11553   */\n      0x24\n        /* \"#utility.yul\":11546:11547   */\n      0x00\n        /* \"#utility.yul\":11539:11554   */\n      revert\n        /* \"#utility.yul\":11566:11746   */\n    tag_157:\n        /* \"#utility.yul\":11614:11691   */\n      0x4e487b7100000000000000000000000000000000000000000000000000000000\n        /* \"#utility.yul\":11611:11612   */\n      0x00\n        /* \"#utility.yul\":11604:11692   */\n      mstore\n        /* \"#utility.yul\":11711:11715   */\n      0x11\n        /* \"#utility.yul\":11708:11709   */\n      0x04\n        /* \"#utility.yul\":11701:11716   */\n      mstore\n        /* \"#utility.yul\":11735:11739   */\n      0x24\n        /* \"#utility.yul\":11732:11733   */\n      0x00\n        /* \"#utility.yul\":11725:11740   */\n      revert\n        /* \"#utility.yul\":11752:11985   */\n    tag_75:\n        /* \"#utility.yul\":11791:11794   */\n      0x00\n        /* \"#utility.yul\":11814:11838   */\n      tag_298\n        /* \"#utility.yul\":11832:11837   */\n      dup3\n        /* \"#utility.yul\":11814:11838   */\n      tag_124\n      jump\t// in\n    tag_298:\n        /* \"#utility.yul\":11805:11838   */\n      swap2\n      pop\n        /* \"#utility.yul\":11860:11926   */\n      0xffffffffffffffffffffffffffffffffffffffffffffffffffffffffffffffff\n        /* \"#utility.yul\":11853:11858   */\n      dup3\n        /* \"#utility.yul\":11850:11927   */\n      sub\n        /* \"#utility.yul\":11847:11950   */\n      tag_299\n      jumpi\n        /* \"#utility.yul\":11930:11948   */\n      tag_300\n      tag_157\n      jump\t// in\n    tag_300:\n        /* \"#utility.yul\":11847:11950   */\n    tag_299:\n        /* \"#utility.yul\":11977:11978   */\n      0x01\n        /* \"#utility.yul\":11970:11975   */\n      dup3\n        /* \"#utility.yul\":11966:11979   */\n      add\n        /* \"#utility.yul\":11959:11979   */\n      swap1\n      pop\n        /* \"#utility.yul\":11752:11985   */\n      swap2\n      swap1\n      pop\n      jump\t// out\n        /* \"#utility.yul\":11991:12212   */\n    tag_158:\n        /* \"#utility.yul\":12131:12165   */\n      0x4f6e6c792061646d696e2063616e20706572666f726d20746869732061637469\n        /* \"#utility.yul\":12127:12128   */\n      0x00\n        /* \"#utility.yul\":12119:12125   */\n      dup3\n        /* \"#utility.yul\":12115:12129   */\n      add\n        /* \"#utility.yul\":12108:12166   */\n      mstore\n        /* \"#utility.yul\":12200:12204   */\n      0x6f6e000000000000000000000000000000000000000000000000000000000000\n        /* \"#utility.yul\":12195:12197   */\n      0x20\n        /* \"#utility.yul\":12187:12193   */\n      dup3\n        /* \"#utility.yul\":12183:12198   */\n      add\n        /* \"#utility.yul\":12176:12205   */\n      mstore\n        /* \"#utility.yul\":11991:12212   */\n      pop\n      jump\t// out\n        /* \"#utility.yul\":12218:12584   */\n    tag_159:\n        /* \"#utility.yul\":12360:12363   */\n      0x00\n        /* \"#utility.yul\":12381:12448   */\n      tag_303\n        /* \"#utility.yul\":12445:12447   */\n      0x22\n        /* \"#utility.yul\":12440:12443   */\n      dup4\n        /* \"#utility.yul\":12381:12448   */\n      tag_129\n      jump\t// in\n    tag_303:\n        /* \"#utility.yul\":12374:12448   */\n      swap2\n      pop\n        /* \"#utility.yul\":12457:12550   */\n      tag_304\n        /* \"#utility.yul\":12546:12549   */\n      dup3\n        /* \"#utility.yul\":12457:12550   */\n      tag_158\n      jump\t// in\n    tag_304:\n        /* \"#utility.yul\":12575:12577   */\n      0x40\n        /* \"#utility.yul\":12570:12573   */\n      dup3\n        /* \"#utility.yul\":12566:12578   */\n      add\n        /* \"#utility.yul\":12559:12578   */\n      swap1\n      pop\n        /* \"#utility.yul\":12218:12584   */\n      swap2\n      swap1\n      pop\n      jump\t// out\n        /* \"#utility.yul\":12590:13009   */\n    tag_80:\n        /* \"#utility.yul\":12756:12760   */\n      0x00\n        /* \"#utility.yul\":12794:12796   */\n      0x20\n        /* \"#utility.yul\":12783:12792   */\n      dup3\n        /* \"#utility.yul\":12779:12797   */\n      add\n        /* \"#utility.yul\":12771:12797   */\n      swap1\n      pop\n        /* \"#utility.yul\":12843:12852   */\n      dup2\n        /* \"#utility.yul\":12837:12841   */\n      dup2\n        /* \"#utility.yul\":12833:12853   */\n      sub\n        /* \"#utility.yul\":12829:12830   */\n      0x00\n        /* \"#utility.yul\":12818:12827   */\n      dup4\n        /* \"#utility.yul\":12814:12831   */\n      add\n        /* \"#utility.yul\":12807:12854   */\n      mstore\n        /* \"#utility.yul\":12871:13002   */\n      tag_306\n        /* \"#utility.yul\":12997:13001   */\n      dup2\n        /* \"#utility.yul\":12871:13002   */\n      tag_159\n      jump\t// in\n    tag_306:\n        /* \"#utility.yul\":12863:13002   */\n      swap1\n      pop\n        /* \"#utility.yul\":12590:13009   */\n      swap2\n      swap1\n      pop\n      jump\t// out\n        /* \"#utility.yul\":13015:13187   */\n    tag_160:\n        /* \"#utility.yul\":13155:13179   */\n      0x566f74696e6720616c7265616479207374617274656400000000000000000000\n        /* \"#utility.yul\":13151:13152   */\n      0x00\n        /* \"#utility.yul\":13143:13149   */\n      dup3\n        /* \"#utility.yul\":13139:13153   */\n      add\n        /* \"#utility.yul\":13132:13180   */\n      mstore\n        /* \"#utility.yul\":13015:13187   */\n      pop\n      jump\t// out\n        /* \"#utility.yul\":13193:13559   */\n    tag_161:\n        /* \"#utility.yul\":13335:13338   */\n      0x00\n        /* \"#utility.yul\":13356:13423   */\n      tag_309\n        /* \"#utility.yul\":13420:13422   */\n      0x16\n        /* \"#utility.yul\":13415:13418   */\n      dup4\n        /* \"#utility.yul\":13356:13423   */\n      tag_129\n      jump\t// in\n    tag_309:\n        /* \"#utility.yul\":13349:13423   */\n      swap2\n      pop\n        /* \"#utility.yul\":13432:13525   */\n      tag_310\n        /* \"#utility.yul\":13521:13524   */\n      dup3\n        /* \"#utility.yul\":13432:13525   */\n      tag_160\n      jump\t// in\n    tag_310:\n        /* \"#utility.yul\":13550:13552   */\n      0x20\n        /* \"#utility.yul\":13545:13548   */\n      dup3\n        /* \"#utility.yul\":13541:13553   */\n      add\n        /* \"#utility.yul\":13534:13553   */\n      swap1\n      pop\n        /* \"#utility.yul\":13193:13559   */\n      swap2\n      swap1\n      pop\n      jump\t// out\n        /* \"#utility.yul\":13565:13984   */\n    tag_84:\n        /* \"#utility.yul\":13731:13735   */\n      0x00\n        /* \"#utility.yul\":13769:13771   */\n      0x20\n        /* \"#utility.yul\":13758:13767   */\n      dup3\n        /* \"#utility.yul\":13754:13772   */\n      add\n        /* \"#utility.yul\":13746:13772   */\n      swap1\n      pop\n        /* \"#utility.yul\":13818:13827   */\n      dup2\n        /* \"#utility.yul\":13812:13816   */\n      dup2\n        /* \"#utility.yul\":13808:13828   */\n      sub\n        /* \"#utility.yul\":13804:13805   */\n      0x00\n        /* \"#utility.yul\":13793:13802   */\n      dup4\n        /* \"#utility.yul\":13789:13806   */\n      add\n        /* \"#utility.yul\":13782:13829   */\n      mstore\n        /* \"#utility.yul\":13846:13977   */\n      tag_312\n        /* \"#utility.yul\":13972:13976   */\n      dup2\n        /* \"#utility.yul\":13846:13977   */\n      tag_161\n      jump\t// in\n    tag_312:\n        /* \"#utility.yul\":13838:13977   */\n      swap1\n      pop\n        /* \"#utility.yul\":13565:13984   */\n      swap2\n      swap1\n      pop\n      jump\t// out\n        /* \"#utility.yul\":13990:14170   */\n    tag_162:\n        /* \"#utility.yul\":14038:14115   */\n      0x4e487b7100000000000000000000000000000000000000000000000000000000\n        /* \"#utility.yul\":14035:14036   */\n      0x00\n        /* \"#utility.yul\":14028:14116   */\n      mstore\n        /* \"#utility.yul\":14135:14139   */\n      0x22\n        /* \"#utility.yul\":14132:14133   */\n      0x04\n        /* \"#utility.yul\":14125:14140   */\n      mstore\n        /* \"#utility.yul\":14159:14163   */\n      0x24\n        /* \"#utility.yul\":14156:14157   */\n      0x00\n        /* \"#utility.yul\":14149:14164   */\n      revert\n        /* \"#utility.yul\":14176:14496   */\n    tag_89:\n        /* \"#utility.yul\":14220:14226   */\n      0x00\n        /* \"#utility.yul\":14257:14258   */\n      0x02\n        /* \"#utility.yul\":14251:14255   */\n      dup3\n        /* \"#utility.yul\":14247:14259   */\n      div\n        /* \"#utility.yul\":14237:14259   */\n      swap1\n      pop\n        /* \"#utility.yul\":14304:14305   */\n      0x01\n        /* \"#utility.yul\":14298:14302   */\n      dup3\n        /* \"#utility.yul\":14294:14306   */\n      and\n        /* \"#utility.yul\":14325:14343   */\n      dup1\n        /* \"#utility.yul\":14315:14396   */\n      tag_315\n      jumpi\n        /* \"#utility.yul\":14381:14385   */\n      0x7f\n        /* \"#utility.yul\":14373:14379   */\n      dup3\n        /* \"#utility.yul\":14369:14386   */\n      and\n        /* \"#utility.yul\":14359:14386   */\n      swap2\n      pop\n        /* \"#utility.yul\":14315:14396   */\n    tag_315:\n        /* \"#utility.yul\":14443:14445   */\n      0x20\n        /* \"#utility.yul\":14435:14441   */\n      dup3\n        /* \"#utility.yul\":14432:14446   */\n      lt\n        /* \"#utility.yul\":14412:14430   */\n      dup2\n        /* \"#utility.yul\":14409:14447   */\n      sub\n        /* \"#utility.yul\":14406:14490   */\n      tag_316\n      jumpi\n        /* \"#utility.yul\":14462:14480   */\n      tag_317\n      tag_162\n      jump\t// in\n    tag_317:\n        /* \"#utility.yul\":14406:14490   */\n    tag_316:\n        /* \"#utility.yul\":14227:14496   */\n      pop\n        /* \"#utility.yul\":14176:14496   */\n      swap2\n      swap1\n      pop\n      jump\t// out\n        /* \"#utility.yul\":14502:14676   */\n    tag_163:\n        /* \"#utility.yul\":14642:14668   */\n      0x566f74657220616c726561647920726567697374657265640000000000000000\n        /* \"#utility.yul\":14638:14639   */\n      0x00\n        /* \"#utility.yul\":14630:14636   */\n      dup3\n        /* \"#utility.yul\":14626:14640   */\n      add\n        /* \"#utility.yul\":14619:14669   */\n      mstore\n        /* \"#utility.yul\":14502:14676   */\n      pop\n      jump\t// out\n        /* \"#utility.yul\":14682:15048   */\n    tag_164:\n        /* \"#utility.yul\":14824:14827   */\n      0x00\n        /* \"#utility.yul\":14845:14912   */\n      tag_320\n        /* \"#utility.yul\":14909:14911   */\n      0x18\n        /* \"#utility.yul\":14904:14907   */\n      dup4\n        /* \"#utility.yul\":14845:14912   */\n      tag_129\n      jump\t// in\n    tag_320:\n        /* \"#utility.yul\":14838:14912   */\n      swap2\n      pop\n        /* \"#utility.yul\":14921:15014   */\n      tag_321\n        /* \"#utility.yul\":15010:15013   */\n      dup3\n        /* \"#utility.yul\":14921:15014   */\n      tag_163\n      jump\t// in\n    tag_321:\n        /* \"#utility.yul\":15039:15041   */\n      0x20\n        /* \"#utility.yul\":15034:15037   */\n      dup3\n        /* \"#utility.yul\":15030:15042   */\n      add\n        /* \"#utility.yul\":15023:15042   */\n      swap1\n      pop\n        /* \"#utility.yul\":14682:15048   */\n      swap2\n      swap1\n      pop\n      jump\t// out\n        /* \"#utility.yul\":15054:15473   */\n    tag_100:\n        /* \"#utility.yul\":15220:15224   */\n      0x00\n        /* \"#utility.yul\":15258:15260   */\n      0x20\n        /* \"#utility.yul\":15247:15256   */\n      dup3\n        /* \"#utility.yul\":15243:15261   */\n      add\n        /* \"#utility.yul\":15235:15261   */\n      swap1\n      pop\n        /* \"#utility.yul\":15307:15316   */\n      dup2\n        /* \"#utility.yul\":15301:15305   */\n      dup2\n        /* \"#utility.yul\":15297:15317   */\n      sub\n        /* \"#utility.yul\":15293:15294   */\n      0x00\n        /* \"#utility.yul\":15282:15291   */\n      dup4\n        /* \"#utility.yul\":15278:15295   */\n      add\n        /* \"#utility.yul\":15271:15318   */\n      mstore\n        /* \"#utility.yul\":15335:15466   */\n      tag_323\n        /* \"#utility.yul\":15461:15465   */\n      dup2\n        /* \"#utility.yul\":15335:15466   */\n      tag_164\n      jump\t// in\n    tag_323:\n        /* \"#utility.yul\":15327:15466   */\n      swap1\n      pop\n        /* \"#utility.yul\":15054:15473   */\n      swap2\n      swap1\n      pop\n      jump\t// out\n        /* \"#utility.yul\":15479:15620   */\n    tag_165:\n        /* \"#utility.yul\":15528:15532   */\n      0x00\n        /* \"#utility.yul\":15551:15554   */\n      dup2\n        /* \"#utility.yul\":15543:15554   */\n      swap1\n      pop\n        /* \"#utility.yul\":15574:15577   */\n      dup2\n        /* \"#utility.yul\":15571:15572   */\n      0x00\n        /* \"#utility.yul\":15564:15578   */\n      mstore\n        /* \"#utility.yul\":15608:15612   */\n      0x20\n        /* \"#utility.yul\":15605:15606   */\n      0x00\n        /* \"#utility.yul\":15595:15613   */\n      keccak256\n        /* \"#utility.yul\":15587:15613   */\n      swap1\n      pop\n        /* \"#utility.yul\":15479:15620   */\n      swap2\n      swap1\n      pop\n      jump\t// out\n        /* \"#utility.yul\":15626:15719   */\n    tag_166:\n        /* \"#utility.yul\":15663:15669   */\n      0x00\n        /* \"#utility.yul\":15710:15712   */\n      0x20\n        /* \"#utility.yul\":15705:15707   */\n      0x1f\n        /* \"#utility.yul\":15698:15703   */\n      dup4\n        /* \"#utility.yul\":15694:15708   */\n      add\n        /* \"#utility.yul\":15690:15713   */\n      div\n        /* \"#utility.yul\":15680:15713   */\n      swap1\n      pop\n        /* \"#utility.yul\":15626:15719   */\n      swap2\n      swap1\n      pop\n      jump\t// out\n        /* \"#utility.yul\":15725:15832   */\n    tag_167:\n        /* \"#utility.yul\":15769:15777   */\n      0x00\n        /* \"#utility.yul\":15819:15824   */\n      dup3\n        /* \"#utility.yul\":15813:15817   */\n      dup3\n        /* \"#utility.yul\":15809:15825   */\n      shl\n        /* \"#utility.yul\":15788:15825   */\n      swap1\n      pop\n        /* \"#utility.yul\":15725:15832   */\n      swap3\n      swap2\n      pop\n      pop\n      jump\t// out\n        /* \"#utility.yul\":15838:16231   */\n    tag_168:\n        /* \"#utility.yul\":15907:15913   */\n      0x00\n        /* \"#utility.yul\":15957:15958   */\n      0x08\n        /* \"#utility.yul\":15945:15955   */\n      dup4\n        /* \"#utility.yul\":15941:15959   */\n      mul\n        /* \"#utility.yul\":15980:16077   */\n      tag_328\n        /* \"#utility.yul\":16010:16076   */\n      0xffffffffffffffffffffffffffffffffffffffffffffffffffffffffffffffff\n        /* \"#utility.yul\":15999:16008   */\n      dup3\n        /* \"#utility.yul\":15980:16077   */\n      tag_167\n      jump\t// in\n    tag_328:\n        /* \"#utility.yul\":16098:16137   */\n      tag_329\n        /* \"#utility.yul\":16128:16136   */\n      dup7\n        /* \"#utility.yul\":16117:16126   */\n      dup4\n        /* \"#utility.yul\":16098:16137   */\n      tag_167\n      jump\t// in\n    tag_329:\n        /* \"#utility.yul\":16086:16137   */\n      swap6\n      pop\n        /* \"#utility.yul\":16170:16174   */\n      dup1\n        /* \"#utility.yul\":16166:16175   */\n      not\n        /* \"#utility.yul\":16159:16164   */\n      dup5\n        /* \"#utility.yul\":16155:16176   */\n      and\n        /* \"#utility.yul\":16146:16176   */\n      swap4\n      pop\n        /* \"#utility.yul\":16219:16223   */\n      dup1\n        /* \"#utility.yul\":16209:16217   */\n      dup7\n        /* \"#utility.yul\":16205:16224   */\n      and\n        /* \"#utility.yul\":16198:16203   */\n      dup5\n        /* \"#utility.yul\":16195:16225   */\n      or\n        /* \"#utility.yul\":16185:16225   */\n      swap3\n      pop\n        /* \"#utility.yul\":15914:16231   */\n      pop\n      pop\n        /* \"#utility.yul\":15838:16231   */\n      swap4\n      swap3\n      pop\n      pop\n      pop\n      jump\t// out\n        /* \"#utility.yul\":16237:16297   */\n    tag_169:\n        /* \"#utility.yul\":16265:16268   */\n      0x00\n        /* \"#utility.yul\":16286:16291   */\n      dup2\n        /* \"#utility.yul\":16279:16291   */\n      swap1\n      pop\n        /* \"#utility.yul\":16237:16297   */\n      swap2\n      swap1\n      pop\n      jump\t// out\n        /* \"#utility.yul\":16303:16445   */\n    tag_170:\n        /* \"#utility.yul\":16353:16362   */\n      0x00\n        /* \"#utility.yul\":16386:16439   */\n      tag_332\n        /* \"#utility.yul\":16404:16438   */\n      tag_333\n        /* \"#utility.yul\":16413:16437   */\n      tag_334\n        /* \"#utility.yul\":16431:16436   */\n      dup5\n        /* \"#utility.yul\":16413:16437   */\n      tag_124\n      jump\t// in\n    tag_334:\n        /* \"#utility.yul\":16404:16438   */\n      tag_169\n      jump\t// in\n    tag_333:\n        /* \"#utility.yul\":16386:16439   */\n      tag_124\n      jump\t// in\n    tag_332:\n        /* \"#utility.yul\":16373:16439   */\n      swap1\n      pop\n        /* \"#utility.yul\":16303:16445   */\n      swap2\n      swap1\n      pop\n      jump\t// out\n        /* \"#utility.yul\":16451:16526   */\n    tag_171:\n        /* \"#utility.yul\":16494:16497   */\n      0x00\n        /* \"#utility.yul\":16515:16520   */\n      dup2\n        /* \"#utility.yul\":16508:16520   */\n      swap1\n      pop\n        /* \"#utility.yul\":16451:16526   */\n      swap2\n      swap1\n      pop\n      jump\t// out\n        /* \"#utility.yul\":16532:16801   */\n    tag_172:\n        /* \"#utility.yul\":16642:16681   */\n      tag_337\n        /* \"#utility.yul\":16673:16680   */\n      dup4\n        /* \"#utility.yul\":16642:16681   */\n      tag_170\n      jump\t// in\n    tag_337:\n        /* \"#utility.yul\":16703:16794   */\n      tag_338\n        /* \"#utility.yul\":16752:16793   */\n      tag_339\n        /* \"#utility.yul\":16776:16792   */\n      dup3\n        /* \"#utility.yul\":16752:16793   */\n      tag_171\n      jump\t// in\n    tag_339:\n        /* \"#utility.yul\":16744:16750   */\n      dup5\n        /* \"#utility.yul\":16737:16741   */\n      dup5\n        /* \"#utility.yul\":16731:16742   */\n      sload\n        /* \"#utility.yul\":16703:16794   */\n      tag_168\n      jump\t// in\n    tag_338:\n        /* \"#utility.yul\":16697:16701   */\n      dup3\n        /* \"#utility.yul\":16690:16795   */\n      sstore\n        /* \"#utility.yul\":16608:16801   */\n      pop\n        /* \"#utility.yul\":16532:16801   */\n      pop\n      pop\n      pop\n      jump\t// out\n        /* \"#utility.yul\":16807:16880   */\n    tag_173:\n        /* \"#utility.yul\":16852:16855   */\n      0x00\n        /* \"#utility.yul\":16807:16880   */\n      swap1\n      jump\t// out\n        /* \"#utility.yul\":16886:17075   */\n    tag_174:\n        /* \"#utility.yul\":16963:16995   */\n      tag_342\n      tag_173\n      jump\t// in\n    tag_342:\n        /* \"#utility.yul\":17004:17069   */\n      tag_343\n        /* \"#utility.yul\":17062:17068   */\n      dup2\n        /* \"#utility.yul\":17054:17060   */\n      dup5\n        /* \"#utility.yul\":17048:17052   */\n      dup5\n        /* \"#utility.yul\":17004:17069   */\n      tag_172\n      jump\t// in\n    tag_343:\n        /* \"#utility.yul\":16939:17075   */\n      pop\n        /* \"#utility.yul\":16886:17075   */\n      pop\n      pop\n      jump\t// out\n        /* \"#utility.yul\":17081:17267   */\n    tag_175:\n        /* \"#utility.yul\":17141:17261   */\n    tag_345:\n        /* \"#utility.yul\":17158:17161   */\n      dup2\n        /* \"#utility.yul\":17151:17156   */\n      dup2\n        /* \"#utility.yul\":17148:17162   */\n      lt\n        /* \"#utility.yul\":17141:17261   */\n      iszero\n      tag_347\n      jumpi\n        /* \"#utility.yul\":17212:17251   */\n      tag_348\n        /* \"#utility.yul\":17249:17250   */\n      0x00\n        /* \"#utility.yul\":17242:17247   */\n      dup3\n        /* \"#utility.yul\":17212:17251   */\n      tag_174\n      jump\t// in\n    tag_348:\n        /* \"#utility.yul\":17185:17186   */\n      0x01\n        /* \"#utility.yul\":17178:17183   */\n      dup2\n        /* \"#utility.yul\":17174:17187   */\n      add\n        /* \"#utility.yul\":17165:17187   */\n      swap1\n      pop\n        /* \"#utility.yul\":17141:17261   */\n      jump(tag_345)\n    tag_347:\n        /* \"#utility.yul\":17081:17267   */\n      pop\n      pop\n      jump\t// out\n        /* \"#utility.yul\":17273:17816   */\n    tag_176:\n        /* \"#utility.yul\":17374:17376   */\n      0x1f\n        /* \"#utility.yul\":17369:17372   */\n      dup3\n        /* \"#utility.yul\":17366:17377   */\n      gt\n        /* \"#utility.yul\":17363:17809   */\n      iszero\n      tag_350\n      jumpi\n        /* \"#utility.yul\":17408:17446   */\n      tag_351\n        /* \"#utility.yul\":17440:17445   */\n      dup2\n        /* \"#utility.yul\":17408:17446   */\n      tag_165\n      jump\t// in\n    tag_351:\n        /* \"#utility.yul\":17492:17521   */\n      tag_352\n        /* \"#utility.yul\":17510:17520   */\n      dup5\n        /* \"#utility.yul\":17492:17521   */\n      tag_166\n      jump\t// in\n    tag_352:\n        /* \"#utility.yul\":17482:17490   */\n      dup2\n        /* \"#utility.yul\":17478:17522   */\n      add\n        /* \"#utility.yul\":17675:17677   */\n      0x20\n        /* \"#utility.yul\":17663:17673   */\n      dup6\n        /* \"#utility.yul\":17660:17678   */\n      lt\n        /* \"#utility.yul\":17657:17706   */\n      iszero\n      tag_353\n      jumpi\n        /* \"#utility.yul\":17696:17704   */\n      dup2\n        /* \"#utility.yul\":17681:17704   */\n      swap1\n      pop\n        /* \"#utility.yul\":17657:17706   */\n    tag_353:\n        /* \"#utility.yul\":17719:17799   */\n      tag_354\n        /* \"#utility.yul\":17775:17797   */\n      tag_355\n        /* \"#utility.yul\":17793:17796   */\n      dup6\n        /* \"#utility.yul\":17775:17797   */\n      tag_166\n      jump\t// in\n    tag_355:\n        /* \"#utility.yul\":17765:17773   */\n      dup4\n        /* \"#utility.yul\":17761:17798   */\n      add\n        /* \"#utility.yul\":17748:17759   */\n      dup3\n        /* \"#utility.yul\":17719:17799   */\n      tag_175\n      jump\t// in\n    tag_354:\n        /* \"#utility.yul\":17378:17809   */\n      pop\n      pop\n        /* \"#utility.yul\":17363:17809   */\n    tag_350:\n        /* \"#utility.yul\":17273:17816   */\n      pop\n      pop\n      pop\n      jump\t// out\n        /* \"#utility.yul\":17822:17939   */\n    tag_177:\n        /* \"#utility.yul\":17876:17884   */\n      0x00\n        /* \"#utility.yul\":17926:17931   */\n      dup3\n        /* \"#utility.yul\":17920:17924   */\n      dup3\n        /* \"#utility.yul\":17916:17932   */\n      shr\n        /* \"#utility.yul\":17895:17932   */\n      swap1\n      pop\n        /* \"#utility.yul\":17822:17939   */\n      swap3\n      swap2\n      pop\n      pop\n      jump\t// out\n        /* \"#utility.yul\":17945:18114   */\n    tag_178:\n        /* \"#utility.yul\":17989:17995   */\n      0x00\n        /* \"#utility.yul\":18022:18073   */\n      tag_358\n        /* \"#utility.yul\":18070:18071   */\n      0x00\n        /* \"#utility.yul\":18066:18072   */\n      not\n        /* \"#utility.yul\":18058:18063   */\n      dup5\n        /* \"#utility.yul\":18055:18056   */\n      0x08\n        /* \"#utility.yul\":18051:18064   */\n      mul\n        /* \"#utility.yul\":18022:18073   */\n      tag_177\n      jump\t// in\n    tag_358:\n        /* \"#utility.yul\":18018:18074   */\n      not\n        /* \"#utility.yul\":18103:18107   */\n      dup1\n        /* \"#utility.yul\":18097:18101   */\n      dup4\n        /* \"#utility.yul\":18093:18108   */\n      and\n        /* \"#utility.yul\":18083:18108   */\n      swap2\n      pop\n        /* \"#utility.yul\":17996:18114   */\n      pop\n        /* \"#utility.yul\":17945:18114   */\n      swap3\n      swap2\n      pop\n      pop\n      jump\t// out\n        /* \"#utility.yul\":18119:18414   */\n    tag_179:\n        /* \"#utility.yul\":18195:18199   */\n      0x00\n        /* \"#utility.yul\":18341:18370   */\n      tag_360\n        /* \"#utility.yul\":18366:18369   */\n      dup4\n        /* \"#utility.yul\":18360:18364   */\n      dup4\n        /* \"#utility.yul\":18341:18370   */\n      tag_178\n      jump\t// in\n    tag_360:\n        /* \"#utility.yul\":18333:18370   */\n      swap2\n      pop\n        /* \"#utility.yul\":18403:18406   */\n      dup3\n        /* \"#utility.yul\":18400:18401   */\n      0x02\n        /* \"#utility.yul\":18396:18407   */\n      mul\n        /* \"#utility.yul\":18390:18394   */\n      dup3\n        /* \"#utility.yul\":18387:18408   */\n      or\n        /* \"#utility.yul\":18379:18408   */\n      swap1\n      pop\n        /* \"#utility.yul\":18119:18414   */\n      swap3\n      swap2\n      pop\n      pop\n      jump\t// out\n        /* \"#utility.yul\":18419:19814   */\n    tag_108:\n        /* \"#utility.yul\":18536:18573   */\n      tag_362\n        /* \"#utility.yul\":18569:18572   */\n      dup3\n        /* \"#utility.yul\":18536:18573   */\n      tag_128\n      jump\t// in\n    tag_362:\n        /* \"#utility.yul\":18638:18656   */\n      0xffffffffffffffff\n        /* \"#utility.yul\":18630:18636   */\n      dup2\n        /* \"#utility.yul\":18627:18657   */\n      gt\n        /* \"#utility.yul\":18624:18680   */\n      iszero\n      tag_363\n      jumpi\n        /* \"#utility.yul\":18660:18678   */\n      tag_364\n      tag_139\n      jump\t// in\n    tag_364:\n        /* \"#utility.yul\":18624:18680   */\n    tag_363:\n        /* \"#utility.yul\":18704:18742   */\n      tag_365\n        /* \"#utility.yul\":18736:18740   */\n      dup3\n        /* \"#utility.yul\":18730:18741   */\n      sload\n        /* \"#utility.yul\":18704:18742   */\n      tag_89\n      jump\t// in\n    tag_365:\n        /* \"#utility.yul\":18789:18856   */\n      tag_366\n        /* \"#utility.yul\":18849:18855   */\n      dup3\n        /* \"#utility.yul\":18841:18847   */\n      dup3\n        /* \"#utility.yul\":18835:18839   */\n      dup6\n        /* \"#utility.yul\":18789:18856   */\n      tag_176\n      jump\t// in\n    tag_366:\n        /* \"#utility.yul\":18883:18884   */\n      0x00\n        /* \"#utility.yul\":18907:18911   */\n      0x20\n        /* \"#utility.yul\":18894:18911   */\n      swap1\n      pop\n        /* \"#utility.yul\":18939:18941   */\n      0x1f\n        /* \"#utility.yul\":18931:18937   */\n      dup4\n        /* \"#utility.yul\":18928:18942   */\n      gt\n        /* \"#utility.yul\":18956:18957   */\n      0x01\n        /* \"#utility.yul\":18951:19569   */\n      dup2\n      eq\n      tag_368\n      jumpi\n        /* \"#utility.yul\":19613:19614   */\n      0x00\n        /* \"#utility.yul\":19630:19636   */\n      dup5\n        /* \"#utility.yul\":19627:19704   */\n      iszero\n      tag_369\n      jumpi\n        /* \"#utility.yul\":19679:19688   */\n      dup3\n        /* \"#utility.yul\":19674:19677   */\n      dup8\n        /* \"#utility.yul\":19670:19689   */\n      add\n        /* \"#utility.yul\":19664:19690   */\n      mload\n        /* \"#utility.yul\":19655:19690   */\n      swap1\n      pop\n        /* \"#utility.yul\":19627:19704   */\n    tag_369:\n        /* \"#utility.yul\":19730:19797   */\n      tag_370\n        /* \"#utility.yul\":19790:19796   */\n      dup6\n        /* \"#utility.yul\":19783:19788   */\n      dup3\n        /* \"#utility.yul\":19730:19797   */\n      tag_179\n      jump\t// in\n    tag_370:\n        /* \"#utility.yul\":19724:19728   */\n      dup7\n        /* \"#utility.yul\":19717:19798   */\n      sstore\n        /* \"#utility.yul\":19586:19808   */\n      pop\n        /* \"#utility.yul\":18921:19808   */\n      jump(tag_367)\n        /* \"#utility.yul\":18951:19569   */\n    tag_368:\n        /* \"#utility.yul\":19003:19007   */\n      0x1f\n        /* \"#utility.yul\":18999:19008   */\n      not\n        /* \"#utility.yul\":18991:18997   */\n      dup5\n        /* \"#utility.yul\":18987:19009   */\n      and\n        /* \"#utility.yul\":19037:19074   */\n      tag_371\n        /* \"#utility.yul\":19069:19073   */\n      dup7\n        /* \"#utility.yul\":19037:19074   */\n      tag_165\n      jump\t// in\n    tag_371:\n        /* \"#utility.yul\":19096:19097   */\n      0x00\n        /* \"#utility.yul\":19110:19318   */\n    tag_372:\n        /* \"#utility.yul\":19124:19131   */\n      dup3\n        /* \"#utility.yul\":19121:19122   */\n      dup2\n        /* \"#utility.yul\":19118:19132   */\n      lt\n        /* \"#utility.yul\":19110:19318   */\n      iszero\n      tag_374\n      jumpi\n        /* \"#utility.yul\":19203:19212   */\n      dup5\n        /* \"#utility.yul\":19198:19201   */\n      dup10\n        /* \"#utility.yul\":19194:19213   */\n      add\n        /* \"#utility.yul\":19188:19214   */\n      mload\n        /* \"#utility.yul\":19180:19186   */\n      dup3\n        /* \"#utility.yul\":19173:19215   */\n      sstore\n        /* \"#utility.yul\":19254:19255   */\n      0x01\n        /* \"#utility.yul\":19246:19252   */\n      dup3\n        /* \"#utility.yul\":19242:19256   */\n      add\n        /* \"#utility.yul\":19232:19256   */\n      swap2\n      pop\n        /* \"#utility.yul\":19301:19303   */\n      0x20\n        /* \"#utility.yul\":19290:19299   */\n      dup6\n        /* \"#utility.yul\":19286:19304   */\n      add\n        /* \"#utility.yul\":19273:19304   */\n      swap5\n      pop\n        /* \"#utility.yul\":19147:19151   */\n      0x20\n        /* \"#utility.yul\":19144:19145   */\n      dup2\n        /* \"#utility.yul\":19140:19152   */\n      add\n        /* \"#utility.yul\":19135:19152   */\n      swap1\n      pop\n        /* \"#utility.yul\":19110:19318   */\n      jump(tag_372)\n    tag_374:\n        /* \"#utility.yul\":19346:19352   */\n      dup7\n        /* \"#utility.yul\":19337:19344   */\n      dup4\n        /* \"#utility.yul\":19334:19353   */\n      lt\n        /* \"#utility.yul\":19331:19510   */\n      iszero\n      tag_375\n      jumpi\n        /* \"#utility.yul\":19404:19413   */\n      dup5\n        /* \"#utility.yul\":19399:19402   */\n      dup10\n        /* \"#utility.yul\":19395:19414   */\n      add\n        /* \"#utility.yul\":19389:19415   */\n      mload\n        /* \"#utility.yul\":19447:19495   */\n      tag_376\n        /* \"#utility.yul\":19489:19493   */\n      0x1f\n        /* \"#utility.yul\":19481:19487   */\n      dup10\n        /* \"#utility.yul\":19477:19494   */\n      and\n        /* \"#utility.yul\":19466:19475   */\n      dup3\n        /* \"#utility.yul\":19447:19495   */\n      tag_178\n      jump\t// in\n    tag_376:\n        /* \"#utility.yul\":19439:19445   */\n      dup4\n        /* \"#utility.yul\":19432:19496   */\n      sstore\n        /* \"#utility.yul\":19354:19510   */\n      pop\n        /* \"#utility.yul\":19331:19510   */\n    tag_375:\n        /* \"#utility.yul\":19556:19557   */\n      0x01\n        /* \"#utility.yul\":19552:19553   */\n      0x02\n        /* \"#utility.yul\":19544:19550   */\n      dup9\n        /* \"#utility.yul\":19540:19554   */\n      mul\n        /* \"#utility.yul\":19536:19558   */\n      add\n        /* \"#utility.yul\":19530:19534   */\n      dup9\n        /* \"#utility.yul\":19523:19559   */\n      sstore\n        /* \"#utility.yul\":18958:19569   */\n      pop\n      pop\n      pop\n        /* \"#utility.yul\":18921:19808   */\n    tag_367:\n      pop\n        /* \"#utility.yul\":18511:19814   */\n      pop\n      pop\n      pop\n        /* \"#utility.yul\":18419:19814   */\n      pop\n      pop\n      jump\t// out\n        /* \"#utility.yul\":19820:20014   */\n    tag_110:\n        /* \"#utility.yul\":19860:19864   */\n      0x00\n        /* \"#utility.yul\":19880:19900   */\n      tag_378\n        /* \"#utility.yul\":19898:19899   */\n      dup3\n        /* \"#utility.yul\":19880:19900   */\n      tag_124\n      jump\t// in\n    tag_378:\n        /* \"#utility.yul\":19875:19900   */\n      swap2\n      pop\n        /* \"#utility.yul\":19914:19934   */\n      tag_379\n        /* \"#utility.yul\":19932:19933   */\n      dup4\n        /* \"#utility.yul\":19914:19934   */\n      tag_124\n      jump\t// in\n    tag_379:\n        /* \"#utility.yul\":19909:19934   */\n      swap3\n      pop\n        /* \"#utility.yul\":19958:19959   */\n      dup3\n        /* \"#utility.yul\":19955:19956   */\n      dup3\n        /* \"#utility.yul\":19951:19960   */\n      sub\n        /* \"#utility.yul\":19943:19960   */\n      swap1\n      pop\n        /* \"#utility.yul\":19982:19983   */\n      dup2\n        /* \"#utility.yul\":19976:19980   */\n      dup2\n        /* \"#utility.yul\":19973:19984   */\n      gt\n        /* \"#utility.yul\":19970:20007   */\n      iszero\n      tag_380\n      jumpi\n        /* \"#utility.yul\":19987:20005   */\n      tag_381\n      tag_157\n      jump\t// in\n    tag_381:\n        /* \"#utility.yul\":19970:20007   */\n    tag_380:\n        /* \"#utility.yul\":19820:20014   */\n      swap3\n      swap2\n      pop\n      pop\n      jump\t// out\n        /* \"#utility.yul\":20020:20443   */\n    tag_112:\n        /* \"#utility.yul\":20161:20165   */\n      0x00\n        /* \"#utility.yul\":20199:20201   */\n      0x40\n        /* \"#utility.yul\":20188:20197   */\n      dup3\n        /* \"#utility.yul\":20184:20202   */\n      add\n        /* \"#utility.yul\":20176:20202   */\n      swap1\n      pop\n        /* \"#utility.yul\":20212:20283   */\n      tag_383\n        /* \"#utility.yul\":20280:20281   */\n      0x00\n        /* \"#utility.yul\":20269:20278   */\n      dup4\n        /* \"#utility.yul\":20265:20282   */\n      add\n        /* \"#utility.yul\":20256:20262   */\n      dup6\n        /* \"#utility.yul\":20212:20283   */\n      tag_127\n      jump\t// in\n    tag_383:\n        /* \"#utility.yul\":20330:20339   */\n      dup2\n        /* \"#utility.yul\":20324:20328   */\n      dup2\n        /* \"#utility.yul\":20320:20340   */\n      sub\n        /* \"#utility.yul\":20315:20317   */\n      0x20\n        /* \"#utility.yul\":20304:20313   */\n      dup4\n        /* \"#utility.yul\":20300:20318   */\n      add\n        /* \"#utility.yul\":20293:20341   */\n      mstore\n        /* \"#utility.yul\":20358:20436   */\n      tag_384\n        /* \"#utility.yul\":20431:20435   */\n      dup2\n        /* \"#utility.yul\":20422:20428   */\n      dup5\n        /* \"#utility.yul\":20358:20436   */\n      tag_132\n      jump\t// in\n    tag_384:\n        /* \"#utility.yul\":20350:20436   */\n      swap1\n      pop\n        /* \"#utility.yul\":20020:20443   */\n      swap4\n      swap3\n      pop\n      pop\n      pop\n      jump\t// out\n        /* \"#utility.yul\":20449:20617   */\n    tag_180:\n        /* \"#utility.yul\":20589:20609   */\n      0x566f74696e67206e6f7420737461727465640000000000000000000000000000\n        /* \"#utility.yul\":20585:20586   */\n      0x00\n        /* \"#utility.yul\":20577:20583   */\n      dup3\n        /* \"#utility.yul\":20573:20587   */\n      add\n        /* \"#utility.yul\":20566:20610   */\n      mstore\n        /* \"#utility.yul\":20449:20617   */\n      pop\n      jump\t// out\n        /* \"#utility.yul\":20623:20989   */\n    tag_181:\n        /* \"#utility.yul\":20765:20768   */\n      0x00\n        /* \"#utility.yul\":20786:20853   */\n      tag_387\n        /* \"#utility.yul\":20850:20852   */\n      0x12\n        /* \"#utility.yul\":20845:20848   */\n      dup4\n        /* \"#utility.yul\":20786:20853   */\n      tag_129\n      jump\t// in\n    tag_387:\n        /* \"#utility.yul\":20779:20853   */\n      swap2\n      pop\n        /* \"#utility.yul\":20862:20955   */\n      tag_388\n        /* \"#utility.yul\":20951:20954   */\n      dup3\n        /* \"#utility.yul\":20862:20955   */\n      tag_180\n      jump\t// in\n    tag_388:\n        /* \"#utility.yul\":20980:20982   */\n      0x20\n        /* \"#utility.yul\":20975:20978   */\n      dup3\n        /* \"#utility.yul\":20971:20983   */\n      add\n        /* \"#utility.yul\":20964:20983   */\n      swap1\n      pop\n        /* \"#utility.yul\":20623:20989   */\n      swap2\n      swap1\n      pop\n      jump\t// out\n        /* \"#utility.yul\":20995:21414   */\n    tag_120:\n        /* \"#utility.yul\":21161:21165   */\n      0x00\n        /* \"#utility.yul\":21199:21201   */\n      0x20\n        /* \"#utility.yul\":21188:21197   */\n      dup3\n        /* \"#utility.yul\":21184:21202   */\n      add\n        /* \"#utility.yul\":21176:21202   */\n      swap1\n      pop\n        /* \"#utility.yul\":21248:21257   */\n      dup2\n        /* \"#utility.yul\":21242:21246   */\n      dup2\n        /* \"#utility.yul\":21238:21258   */\n      sub\n        /* \"#utility.yul\":21234:21235   */\n      0x00\n        /* \"#utility.yul\":21223:21232   */\n      dup4\n        /* \"#utility.yul\":21219:21236   */\n      add\n        /* \"#utility.yul\":21212:21259   */\n      mstore\n        /* \"#utility.yul\":21276:21407   */\n      tag_390\n        /* \"#utility.yul\":21402:21406   */\n      dup2\n        /* \"#utility.yul\":21276:21407   */\n      tag_181\n      jump\t// in\n    tag_390:\n        /* \"#utility.yul\":21268:21407   */\n      swap1\n      pop\n        /* \"#utility.yul\":20995:21414   */\n      swap2\n      swap1\n      pop\n      jump\t// out\n\n    auxdata: 0xa264697066735822122083e3983dc6592dc9c68aeabebdd2050587133ab845330322d1cbaaf807951d0064736f6c63430008160033\n}\n",
				"bytecode": {
					"linkReferences": {},
					"object": "60806040525f8060146101000a81548160ff021916908315150217905550348015610028575f80fd5b50335f806101000a81548173ffffffffffffffffffffffffffffffffffffffff021916908373ffffffffffffffffffffffffffffffffffffffff16021790555061167d806100755f395ff3fe608060405234801561000f575f80fd5b50600436106100a7575f3560e01c8063462e91ec1161006f578063462e91ec1461013d578063581c281c14610159578063a3ec138d14610177578063a95824b4146101a8578063c3403ddf146101c6578063f851a440146101d0576100a7565b80630121b93f146100ab5780631ec6b60a146100c757806330a56347146100d15780633477ee2e146100ef57806338db6dd314610121575b5f80fd5b6100c560048036038101906100c09190610b83565b6101ee565b005b6100cf61047b565b005b6100d961059f565b6040516100e69190610bbd565b60405180910390f35b61010960048036038101906101049190610b83565b6105ab565b60405161011893929190610c60565b60405180910390f35b61013b60048036038101906101369190610cf6565b610666565b005b61015760048036038101906101529190610e4d565b61084f565b005b61016161099b565b60405161016e9190610eae565b60405180910390f35b610191600480360381019061018c9190610cf6565b6109b0565b60405161019f929190610ec7565b60405180910390f35b6101b06109e8565b6040516101bd9190610eae565b60405180910390f35b6101ce6109fa565b005b6101d8610b1c565b6040516101e59190610efd565b60405180910390f35b5f60149054906101000a900460ff1661023c576040517f08c379a000000000000000000000000000000000000000000000000000000000815260040161023390610f60565b60405180910390fd5b60015f3373ffffffffffffffffffffffffffffffffffffffff1673ffffffffffffffffffffffffffffffffffffffff1681526020019081526020015f205f015f9054906101000a900460ff166102c7576040517f08c379a00000000000000000000000000000000000000000000000000000000081526004016102be90610fc8565b60405180910390fd5b60015f3373ffffffffffffffffffffffffffffffffffffffff1673ffffffffffffffffffffffffffffffffffffffff1681526020019081526020015f205f0160019054906101000a900460ff1615610354576040517f08c379a000000000000000000000000000000000000000000000000000000000815260040161034b90611030565b60405180910390fd5b600280549050811061039b576040517f08c379a000000000000000000000000000000000000000000000000000000000815260040161039290611098565b60405180910390fd5b600281815481106103af576103ae6110b6565b5b905f5260205f2090600302016002015f8154809291906103ce90611110565b91905055506001805f3373ffffffffffffffffffffffffffffffffffffffff1673ffffffffffffffffffffffffffffffffffffffff1681526020019081526020015f205f0160016101000a81548160ff0219169083151502179055503373ffffffffffffffffffffffffffffffffffffffff167fa36cc2bebb74db33e9f88110a07ef56e1b31b24b4c4f51b54b1664266e29f45b826040516104709190610bbd565b60405180910390a250565b5f8054906101000a900473ffffffffffffffffffffffffffffffffffffffff1673ffffffffffffffffffffffffffffffffffffffff163373ffffffffffffffffffffffffffffffffffffffff1614610508576040517f08c379a00000000000000000000000000000000000000000000000000000000081526004016104ff906111c7565b60405180910390fd5b5f60149054906101000a900460ff1615610557576040517f08c379a000000000000000000000000000000000000000000000000000000000815260040161054e9061122f565b60405180910390fd5b60015f60146101000a81548160ff0219169083151502179055507f877e2548498f42b7975a186b94ef1d32c86d420b7b806dd2be2bea293b89590460405160405180910390a1565b5f600280549050905090565b600281815481106105ba575f80fd5b905f5260205f2090600302015f91509050805f0154908060010180546105df9061127a565b80601f016020809104026020016040519081016040528092919081815260200182805461060b9061127a565b80156106565780601f1061062d57610100808354040283529160200191610656565b820191905f5260205f20905b81548152906001019060200180831161063957829003601f168201915b5050505050908060020154905083565b5f8054906101000a900473ffffffffffffffffffffffffffffffffffffffff1673ffffffffffffffffffffffffffffffffffffffff163373ffffffffffffffffffffffffffffffffffffffff16146106f3576040517f08c379a00000000000000000000000000000000000000000000000000000000081526004016106ea906111c7565b60405180910390fd5b60015f8273ffffffffffffffffffffffffffffffffffffffff1673ffffffffffffffffffffffffffffffffffffffff1681526020019081526020015f205f015f9054906101000a900460ff161561077f576040517f08c379a0000000000000000000000000000000000000000000000000000000008152600401610776906112f4565b60405180910390fd5b60405180604001604052806001151581526020015f151581525060015f8373ffffffffffffffffffffffffffffffffffffffff1673ffffffffffffffffffffffffffffffffffffffff1681526020019081526020015f205f820151815f015f6101000a81548160ff0219169083151502179055506020820151815f0160016101000a81548160ff0219169083151502179055509050507fb6be2187d059cc2a55fe29e0e503b566e1e0f8c8780096e185429350acffd3dd816040516108449190610efd565b60405180910390a150565b5f8054906101000a900473ffffffffffffffffffffffffffffffffffffffff1673ffffffffffffffffffffffffffffffffffffffff163373ffffffffffffffffffffffffffffffffffffffff16146108dc576040517f08c379a00000000000000000000000000000000000000000000000000000000081526004016108d3906111c7565b60405180910390fd5b6002604051806060016040528060028054905081526020018381526020015f815250908060018154018082558091505060019003905f5260205f2090600302015f909190919091505f820151815f0155602082015181600101908161094191906114af565b506040820151816002015550507fe83b2a43e7e82d975c8a0a6d2f045153c869e111136a34d1889ab7b598e396a36001600280549050610981919061157e565b826040516109909291906115b1565b60405180910390a150565b5f8060149054906101000a900460ff16905090565b6001602052805f5260405f205f91509050805f015f9054906101000a900460ff1690805f0160019054906101000a900460ff16905082565b5f60149054906101000a900460ff1681565b5f8054906101000a900473ffffffffffffffffffffffffffffffffffffffff1673ffffffffffffffffffffffffffffffffffffffff163373ffffffffffffffffffffffffffffffffffffffff1614610a87576040517f08c379a0000000000000000000000000000000000000000000000000000000008152600401610a7e906111c7565b60405180910390fd5b5f60149054906101000a900460ff16610ad5576040517f08c379a0000000000000000000000000000000000000000000000000000000008152600401610acc90611629565b60405180910390fd5b5f8060146101000a81548160ff0219169083151502179055507f7a19ed057db79e3c2fa0b97a54b43bef4fce74b31bb6c01af514b9a18a7f70ab60405160405180910390a1565b5f8054906101000a900473ffffffffffffffffffffffffffffffffffffffff1681565b5f604051905090565b5f80fd5b5f80fd5b5f819050919050565b610b6281610b50565b8114610b6c575f80fd5b50565b5f81359050610b7d81610b59565b92915050565b5f60208284031215610b9857610b97610b48565b5b5f610ba584828501610b6f565b91505092915050565b610bb781610b50565b82525050565b5f602082019050610bd05f830184610bae565b92915050565b5f81519050919050565b5f82825260208201905092915050565b5f5b83811015610c0d578082015181840152602081019050610bf2565b5f8484015250505050565b5f601f19601f8301169050919050565b5f610c3282610bd6565b610c3c8185610be0565b9350610c4c818560208601610bf0565b610c5581610c18565b840191505092915050565b5f606082019050610c735f830186610bae565b8181036020830152610c858185610c28565b9050610c946040830184610bae565b949350505050565b5f73ffffffffffffffffffffffffffffffffffffffff82169050919050565b5f610cc582610c9c565b9050919050565b610cd581610cbb565b8114610cdf575f80fd5b50565b5f81359050610cf081610ccc565b92915050565b5f60208284031215610d0b57610d0a610b48565b5b5f610d1884828501610ce2565b91505092915050565b5f80fd5b5f80fd5b7f4e487b71000000000000000000000000000000000000000000000000000000005f52604160045260245ffd5b610d5f82610c18565b810181811067ffffffffffffffff82111715610d7e57610d7d610d29565b5b80604052505050565b5f610d90610b3f565b9050610d9c8282610d56565b919050565b5f67ffffffffffffffff821115610dbb57610dba610d29565b5b610dc482610c18565b9050602081019050919050565b828183375f83830152505050565b5f610df1610dec84610da1565b610d87565b905082815260208101848484011115610e0d57610e0c610d25565b5b610e18848285610dd1565b509392505050565b5f82601f830112610e3457610e33610d21565b5b8135610e44848260208601610ddf565b91505092915050565b5f60208284031215610e6257610e61610b48565b5b5f82013567ffffffffffffffff811115610e7f57610e7e610b4c565b5b610e8b84828501610e20565b91505092915050565b5f8115159050919050565b610ea881610e94565b82525050565b5f602082019050610ec15f830184610e9f565b92915050565b5f604082019050610eda5f830185610e9f565b610ee76020830184610e9f565b9392505050565b610ef781610cbb565b82525050565b5f602082019050610f105f830184610eee565b92915050565b7f566f74696e67206973206e6f74206f70656e00000000000000000000000000005f82015250565b5f610f4a601283610be0565b9150610f5582610f16565b602082019050919050565b5f6020820190508181035f830152610f7781610f3e565b9050919050565b7f566f746572206e6f7420726567697374657265640000000000000000000000005f82015250565b5f610fb2601483610be0565b9150610fbd82610f7e565b602082019050919050565b5f6020820190508181035f830152610fdf81610fa6565b9050919050565b7f416c726561647920766f746564000000000000000000000000000000000000005f82015250565b5f61101a600d83610be0565b915061102582610fe6565b602082019050919050565b5f6020820190508181035f8301526110478161100e565b9050919050565b7f496e76616c69642063616e6469646174650000000000000000000000000000005f82015250565b5f611082601183610be0565b915061108d8261104e565b602082019050919050565b5f6020820190508181035f8301526110af81611076565b9050919050565b7f4e487b71000000000000000000000000000000000000000000000000000000005f52603260045260245ffd5b7f4e487b71000000000000000000000000000000000000000000000000000000005f52601160045260245ffd5b5f61111a82610b50565b91507fffffffffffffffffffffffffffffffffffffffffffffffffffffffffffffffff820361114c5761114b6110e3565b5b600182019050919050565b7f4f6e6c792061646d696e2063616e20706572666f726d207468697320616374695f8201527f6f6e000000000000000000000000000000000000000000000000000000000000602082015250565b5f6111b1602283610be0565b91506111bc82611157565b604082019050919050565b5f6020820190508181035f8301526111de816111a5565b9050919050565b7f566f74696e6720616c72656164792073746172746564000000000000000000005f82015250565b5f611219601683610be0565b9150611224826111e5565b602082019050919050565b5f6020820190508181035f8301526112468161120d565b9050919050565b7f4e487b71000000000000000000000000000000000000000000000000000000005f52602260045260245ffd5b5f600282049050600182168061129157607f821691505b6020821081036112a4576112a361124d565b5b50919050565b7f566f74657220616c7265616479207265676973746572656400000000000000005f82015250565b5f6112de601883610be0565b91506112e9826112aa565b602082019050919050565b5f6020820190508181035f83015261130b816112d2565b9050919050565b5f819050815f5260205f209050919050565b5f6020601f8301049050919050565b5f82821b905092915050565b5f6008830261136e7fffffffffffffffffffffffffffffffffffffffffffffffffffffffffffffffff82611333565b6113788683611333565b95508019841693508086168417925050509392505050565b5f819050919050565b5f6113b36113ae6113a984610b50565b611390565b610b50565b9050919050565b5f819050919050565b6113cc83611399565b6113e06113d8826113ba565b84845461133f565b825550505050565b5f90565b6113f46113e8565b6113ff8184846113c3565b505050565b5b81811015611422576114175f826113ec565b600181019050611405565b5050565b601f8211156114675761143881611312565b61144184611324565b81016020851015611450578190505b61146461145c85611324565b830182611404565b50505b505050565b5f82821c905092915050565b5f6114875f198460080261146c565b1980831691505092915050565b5f61149f8383611478565b9150826002028217905092915050565b6114b882610bd6565b67ffffffffffffffff8111156114d1576114d0610d29565b5b6114db825461127a565b6114e6828285611426565b5f60209050601f831160018114611517575f8415611505578287015190505b61150f8582611494565b865550611576565b601f19841661152586611312565b5f5b8281101561154c57848901518255600182019150602085019450602081019050611527565b868310156115695784890151611565601f891682611478565b8355505b6001600288020188555050505b505050505050565b5f61158882610b50565b915061159383610b50565b92508282039050818111156115ab576115aa6110e3565b5b92915050565b5f6040820190506115c45f830185610bae565b81810360208301526115d68184610c28565b90509392505050565b7f566f74696e67206e6f74207374617274656400000000000000000000000000005f82015250565b5f611613601283610be0565b915061161e826115df565b602082019050919050565b5f6020820190508181035f83015261164081611607565b905091905056fea264697066735822122083e3983dc6592dc9c68aeabebdd2050587133ab845330322d1cbaaf807951d0064736f6c63430008160033",
					"opcodes": "PUSH1 0x80 PUSH1 0x40 MSTORE PUSH0 DUP1 PUSH1 0x14 PUSH2 0x100 EXP DUP2 SLOAD DUP2 PUSH1 0xFF MUL NOT AND SWAP1 DUP4 ISZERO ISZERO MUL OR SWAP1 SSTORE POP CALLVALUE DUP1 ISZERO PUSH2 0x28 JUMPI PUSH0 DUP1 REVERT JUMPDEST POP CALLER PUSH0 DUP1 PUSH2 0x100 EXP DUP2 SLOAD DUP2 PUSH20 0xFFFFFFFFFFFFFFFFFFFFFFFFFFFFFFFFFFFFFFFF MUL NOT AND SWAP1 DUP4 PUSH20 0xFFFFFFFFFFFFFFFFFFFFFFFFFFFFFFFFFFFFFFFF AND MUL OR SWAP1 SSTORE POP PUSH2 0x167D DUP1 PUSH2 0x75 PUSH0 CODECOPY PUSH0 RETURN INVALID PUSH1 0x80 PUSH1 0x40 MSTORE CALLVALUE DUP1 ISZERO PUSH2 0xF JUMPI PUSH0 DUP1 REVERT JUMPDEST POP PUSH1 0x4 CALLDATASIZE LT PUSH2 0xA7 JUMPI PUSH0 CALLDATALOAD PUSH1 0xE0 SHR DUP1 PUSH4 0x462E91EC GT PUSH2 0x6F JUMPI DUP1 PUSH4 0x462E91EC EQ PUSH2 0x13D JUMPI DUP1 PUSH4 0x581C281C EQ PUSH2 0x159 JUMPI DUP1 PUSH4 0xA3EC138D EQ PUSH2 0x177 JUMPI DUP1 PUSH4 0xA95824B4 EQ PUSH2 0x1A8 JUMPI DUP1 PUSH4 0xC3403DDF EQ PUSH2 0x1C6 JUMPI DUP1 PUSH4 0xF851A440 EQ PUSH2 0x1D0 JUMPI PUSH2 0xA7 JUMP JUMPDEST DUP1 PUSH4 0x121B93F EQ PUSH2 0xAB JUMPI DUP1 PUSH4 0x1EC6B60A EQ PUSH2 0xC7 JUMPI DUP1 PUSH4 0x30A56347 EQ PUSH2 0xD1 JUMPI DUP1 PUSH4 0x3477EE2E EQ PUSH2 0xEF JUMPI DUP1 PUSH4 0x38DB6DD3 EQ PUSH2 0x121 JUMPI JUMPDEST PUSH0 DUP1 REVERT JUMPDEST PUSH2 0xC5 PUSH1 0x4 DUP1 CALLDATASIZE SUB DUP2 ADD SWAP1 PUSH2 0xC0 SWAP2 SWAP1 PUSH2 0xB83 JUMP JUMPDEST PUSH2 0x1EE JUMP JUMPDEST STOP JUMPDEST PUSH2 0xCF PUSH2 0x47B JUMP JUMPDEST STOP JUMPDEST PUSH2 0xD9 PUSH2 0x59F JUMP JUMPDEST PUSH1 0x40 MLOAD PUSH2 0xE6 SWAP2 SWAP1 PUSH2 0xBBD JUMP JUMPDEST PUSH1 0x40 MLOAD DUP1 SWAP2 SUB SWAP1 RETURN JUMPDEST PUSH2 0x109 PUSH1 0x4 DUP1 CALLDATASIZE SUB DUP2 ADD SWAP1 PUSH2 0x104 SWAP2 SWAP1 PUSH2 0xB83 JUMP JUMPDEST PUSH2 0x5AB JUMP JUMPDEST PUSH1 0x40 MLOAD PUSH2 0x118 SWAP4 SWAP3 SWAP2 SWAP1 PUSH2 0xC60 JUMP JUMPDEST PUSH1 0x40 MLOAD DUP1 SWAP2 SUB SWAP1 RETURN JUMPDEST PUSH2 0x13B PUSH1 0x4 DUP1 CALLDATASIZE SUB DUP2 ADD SWAP1 PUSH2 0x136 SWAP2 SWAP1 PUSH2 0xCF6 JUMP JUMPDEST PUSH2 0x666 JUMP JUMPDEST STOP JUMPDEST PUSH2 0x157 PUSH1 0x4 DUP1 CALLDATASIZE SUB DUP2 ADD SWAP1 PUSH2 0x152 SWAP2 SWAP1 PUSH2 0xE4D JUMP JUMPDEST PUSH2 0x84F JUMP JUMPDEST STOP JUMPDEST PUSH2 0x161 PUSH2 0x99B JUMP JUMPDEST PUSH1 0x40 MLOAD PUSH2 0x16E SWAP2 SWAP1 PUSH2 0xEAE JUMP JUMPDEST PUSH1 0x40 MLOAD DUP1 SWAP2 SUB SWAP1 RETURN JUMPDEST PUSH2 0x191 PUSH1 0x4 DUP1 CALLDATASIZE SUB DUP2 ADD SWAP1 PUSH2 0x18C SWAP2 SWAP1 PUSH2 0xCF6 JUMP JUMPDEST PUSH2 0x9B0 JUMP JUMPDEST PUSH1 0x40 MLOAD PUSH2 0x19F SWAP3 SWAP2 SWAP1 PUSH2 0xEC7 JUMP JUMPDEST PUSH1 0x40 MLOAD DUP1 SWAP2 SUB SWAP1 RETURN JUMPDEST PUSH2 0x1B0 PUSH2 0x9E8 JUMP JUMPDEST PUSH1 0x40 MLOAD PUSH2 0x1BD SWAP2 SWAP1 PUSH2 0xEAE JUMP JUMPDEST PUSH1 0x40 MLOAD DUP1 SWAP2 SUB SWAP1 RETURN JUMPDEST PUSH2 0x1CE PUSH2 0x9FA JUMP JUMPDEST STOP JUMPDEST PUSH2 0x1D8 PUSH2 0xB1C JUMP JUMPDEST PUSH1 0x40 MLOAD PUSH2 0x1E5 SWAP2 SWAP1 PUSH2 0xEFD JUMP JUMPDEST PUSH1 0x40 MLOAD DUP1 SWAP2 SUB SWAP1 RETURN JUMPDEST PUSH0 PUSH1 0x14 SWAP1 SLOAD SWAP1 PUSH2 0x100 EXP SWAP1 DIV PUSH1 0xFF AND PUSH2 0x23C JUMPI PUSH1 0x40 MLOAD PUSH32 0x8C379A000000000000000000000000000000000000000000000000000000000 DUP2 MSTORE PUSH1 0x4 ADD PUSH2 0x233 SWAP1 PUSH2 0xF60 JUMP JUMPDEST PUSH1 0x40 MLOAD DUP1 SWAP2 SUB SWAP1 REVERT JUMPDEST PUSH1 0x1 PUSH0 CALLER PUSH20 0xFFFFFFFFFFFFFFFFFFFFFFFFFFFFFFFFFFFFFFFF AND PUSH20 0xFFFFFFFFFFFFFFFFFFFFFFFFFFFFFFFFFFFFFFFF AND DUP2 MSTORE PUSH1 0x20 ADD SWAP1 DUP2 MSTORE PUSH1 0x20 ADD PUSH0 KECCAK256 PUSH0 ADD PUSH0 SWAP1 SLOAD SWAP1 PUSH2 0x100 EXP SWAP1 DIV PUSH1 0xFF AND PUSH2 0x2C7 JUMPI PUSH1 0x40 MLOAD PUSH32 0x8C379A000000000000000000000000000000000000000000000000000000000 DUP2 MSTORE PUSH1 0x4 ADD PUSH2 0x2BE SWAP1 PUSH2 0xFC8 JUMP JUMPDEST PUSH1 0x40 MLOAD DUP1 SWAP2 SUB SWAP1 REVERT JUMPDEST PUSH1 0x1 PUSH0 CALLER PUSH20 0xFFFFFFFFFFFFFFFFFFFFFFFFFFFFFFFFFFFFFFFF AND PUSH20 0xFFFFFFFFFFFFFFFFFFFFFFFFFFFFFFFFFFFFFFFF AND DUP2 MSTORE PUSH1 0x20 ADD SWAP1 DUP2 MSTORE PUSH1 0x20 ADD PUSH0 KECCAK256 PUSH0 ADD PUSH1 0x1 SWAP1 SLOAD SWAP1 PUSH2 0x100 EXP SWAP1 DIV PUSH1 0xFF AND ISZERO PUSH2 0x354 JUMPI PUSH1 0x40 MLOAD PUSH32 0x8C379A000000000000000000000000000000000000000000000000000000000 DUP2 MSTORE PUSH1 0x4 ADD PUSH2 0x34B SWAP1 PUSH2 0x1030 JUMP JUMPDEST PUSH1 0x40 MLOAD DUP1 SWAP2 SUB SWAP1 REVERT JUMPDEST PUSH1 0x2 DUP1 SLOAD SWAP1 POP DUP2 LT PUSH2 0x39B JUMPI PUSH1 0x40 MLOAD PUSH32 0x8C379A000000000000000000000000000000000000000000000000000000000 DUP2 MSTORE PUSH1 0x4 ADD PUSH2 0x392 SWAP1 PUSH2 0x1098 JUMP JUMPDEST PUSH1 0x40 MLOAD DUP1 SWAP2 SUB SWAP1 REVERT JUMPDEST PUSH1 0x2 DUP2 DUP2 SLOAD DUP2 LT PUSH2 0x3AF JUMPI PUSH2 0x3AE PUSH2 0x10B6 JUMP JUMPDEST JUMPDEST SWAP1 PUSH0 MSTORE PUSH1 0x20 PUSH0 KECCAK256 SWAP1 PUSH1 0x3 MUL ADD PUSH1 0x2 ADD PUSH0 DUP2 SLOAD DUP1 SWAP3 SWAP2 SWAP1 PUSH2 0x3CE SWAP1 PUSH2 0x1110 JUMP JUMPDEST SWAP2 SWAP1 POP SSTORE POP PUSH1 0x1 DUP1 PUSH0 CALLER PUSH20 0xFFFFFFFFFFFFFFFFFFFFFFFFFFFFFFFFFFFFFFFF AND PUSH20 0xFFFFFFFFFFFFFFFFFFFFFFFFFFFFFFFFFFFFFFFF AND DUP2 MSTORE PUSH1 0x20 ADD SWAP1 DUP2 MSTORE PUSH1 0x20 ADD PUSH0 KECCAK256 PUSH0 ADD PUSH1 0x1 PUSH2 0x100 EXP DUP2 SLOAD DUP2 PUSH1 0xFF MUL NOT AND SWAP1 DUP4 ISZERO ISZERO MUL OR SWAP1 SSTORE POP CALLER PUSH20 0xFFFFFFFFFFFFFFFFFFFFFFFFFFFFFFFFFFFFFFFF AND PUSH32 0xA36CC2BEBB74DB33E9F88110A07EF56E1B31B24B4C4F51B54B1664266E29F45B DUP3 PUSH1 0x40 MLOAD PUSH2 0x470 SWAP2 SWAP1 PUSH2 0xBBD JUMP JUMPDEST PUSH1 0x40 MLOAD DUP1 SWAP2 SUB SWAP1 LOG2 POP JUMP JUMPDEST PUSH0 DUP1 SLOAD SWAP1 PUSH2 0x100 EXP SWAP1 DIV PUSH20 0xFFFFFFFFFFFFFFFFFFFFFFFFFFFFFFFFFFFFFFFF AND PUSH20 0xFFFFFFFFFFFFFFFFFFFFFFFFFFFFFFFFFFFFFFFF AND CALLER PUSH20 0xFFFFFFFFFFFFFFFFFFFFFFFFFFFFFFFFFFFFFFFF AND EQ PUSH2 0x508 JUMPI PUSH1 0x40 MLOAD PUSH32 0x8C379A000000000000000000000000000000000000000000000000000000000 DUP2 MSTORE PUSH1 0x4 ADD PUSH2 0x4FF SWAP1 PUSH2 0x11C7 JUMP JUMPDEST PUSH1 0x40 MLOAD DUP1 SWAP2 SUB SWAP1 REVERT JUMPDEST PUSH0 PUSH1 0x14 SWAP1 SLOAD SWAP1 PUSH2 0x100 EXP SWAP1 DIV PUSH1 0xFF AND ISZERO PUSH2 0x557 JUMPI PUSH1 0x40 MLOAD PUSH32 0x8C379A000000000000000000000000000000000000000000000000000000000 DUP2 MSTORE PUSH1 0x4 ADD PUSH2 0x54E SWAP1 PUSH2 0x122F JUMP JUMPDEST PUSH1 0x40 MLOAD DUP1 SWAP2 SUB SWAP1 REVERT JUMPDEST PUSH1 0x1 PUSH0 PUSH1 0x14 PUSH2 0x100 EXP DUP2 SLOAD DUP2 PUSH1 0xFF MUL NOT AND SWAP1 DUP4 ISZERO ISZERO MUL OR SWAP1 SSTORE POP PUSH32 0x877E2548498F42B7975A186B94EF1D32C86D420B7B806DD2BE2BEA293B895904 PUSH1 0x40 MLOAD PUSH1 0x40 MLOAD DUP1 SWAP2 SUB SWAP1 LOG1 JUMP JUMPDEST PUSH0 PUSH1 0x2 DUP1 SLOAD SWAP1 POP SWAP1 POP SWAP1 JUMP JUMPDEST PUSH1 0x2 DUP2 DUP2 SLOAD DUP2 LT PUSH2 0x5BA JUMPI PUSH0 DUP1 REVERT JUMPDEST SWAP1 PUSH0 MSTORE PUSH1 0x20 PUSH0 KECCAK256 SWAP1 PUSH1 0x3 MUL ADD PUSH0 SWAP2 POP SWAP1 POP DUP1 PUSH0 ADD SLOAD SWAP1 DUP1 PUSH1 0x1 ADD DUP1 SLOAD PUSH2 0x5DF SWAP1 PUSH2 0x127A JUMP JUMPDEST DUP1 PUSH1 0x1F ADD PUSH1 0x20 DUP1 SWAP2 DIV MUL PUSH1 0x20 ADD PUSH1 0x40 MLOAD SWAP1 DUP2 ADD PUSH1 0x40 MSTORE DUP1 SWAP3 SWAP2 SWAP1 DUP2 DUP2 MSTORE PUSH1 0x20 ADD DUP3 DUP1 SLOAD PUSH2 0x60B SWAP1 PUSH2 0x127A JUMP JUMPDEST DUP1 ISZERO PUSH2 0x656 JUMPI DUP1 PUSH1 0x1F LT PUSH2 0x62D JUMPI PUSH2 0x100 DUP1 DUP4 SLOAD DIV MUL DUP4 MSTORE SWAP2 PUSH1 0x20 ADD SWAP2 PUSH2 0x656 JUMP JUMPDEST DUP3 ADD SWAP2 SWAP1 PUSH0 MSTORE PUSH1 0x20 PUSH0 KECCAK256 SWAP1 JUMPDEST DUP2 SLOAD DUP2 MSTORE SWAP1 PUSH1 0x1 ADD SWAP1 PUSH1 0x20 ADD DUP1 DUP4 GT PUSH2 0x639 JUMPI DUP3 SWAP1 SUB PUSH1 0x1F AND DUP3 ADD SWAP2 JUMPDEST POP POP POP POP POP SWAP1 DUP1 PUSH1 0x2 ADD SLOAD SWAP1 POP DUP4 JUMP JUMPDEST PUSH0 DUP1 SLOAD SWAP1 PUSH2 0x100 EXP SWAP1 DIV PUSH20 0xFFFFFFFFFFFFFFFFFFFFFFFFFFFFFFFFFFFFFFFF AND PUSH20 0xFFFFFFFFFFFFFFFFFFFFFFFFFFFFFFFFFFFFFFFF AND CALLER PUSH20 0xFFFFFFFFFFFFFFFFFFFFFFFFFFFFFFFFFFFFFFFF AND EQ PUSH2 0x6F3 JUMPI PUSH1 0x40 MLOAD PUSH32 0x8C379A000000000000000000000000000000000000000000000000000000000 DUP2 MSTORE PUSH1 0x4 ADD PUSH2 0x6EA SWAP1 PUSH2 0x11C7 JUMP JUMPDEST PUSH1 0x40 MLOAD DUP1 SWAP2 SUB SWAP1 REVERT JUMPDEST PUSH1 0x1 PUSH0 DUP3 PUSH20 0xFFFFFFFFFFFFFFFFFFFFFFFFFFFFFFFFFFFFFFFF AND PUSH20 0xFFFFFFFFFFFFFFFFFFFFFFFFFFFFFFFFFFFFFFFF AND DUP2 MSTORE PUSH1 0x20 ADD SWAP1 DUP2 MSTORE PUSH1 0x20 ADD PUSH0 KECCAK256 PUSH0 ADD PUSH0 SWAP1 SLOAD SWAP1 PUSH2 0x100 EXP SWAP1 DIV PUSH1 0xFF AND ISZERO PUSH2 0x77F JUMPI PUSH1 0x40 MLOAD PUSH32 0x8C379A000000000000000000000000000000000000000000000000000000000 DUP2 MSTORE PUSH1 0x4 ADD PUSH2 0x776 SWAP1 PUSH2 0x12F4 JUMP JUMPDEST PUSH1 0x40 MLOAD DUP1 SWAP2 SUB SWAP1 REVERT JUMPDEST PUSH1 0x40 MLOAD DUP1 PUSH1 0x40 ADD PUSH1 0x40 MSTORE DUP1 PUSH1 0x1 ISZERO ISZERO DUP2 MSTORE PUSH1 0x20 ADD PUSH0 ISZERO ISZERO DUP2 MSTORE POP PUSH1 0x1 PUSH0 DUP4 PUSH20 0xFFFFFFFFFFFFFFFFFFFFFFFFFFFFFFFFFFFFFFFF AND PUSH20 0xFFFFFFFFFFFFFFFFFFFFFFFFFFFFFFFFFFFFFFFF AND DUP2 MSTORE PUSH1 0x20 ADD SWAP1 DUP2 MSTORE PUSH1 0x20 ADD PUSH0 KECCAK256 PUSH0 DUP3 ADD MLOAD DUP2 PUSH0 ADD PUSH0 PUSH2 0x100 EXP DUP2 SLOAD DUP2 PUSH1 0xFF MUL NOT AND SWAP1 DUP4 ISZERO ISZERO MUL OR SWAP1 SSTORE POP PUSH1 0x20 DUP3 ADD MLOAD DUP2 PUSH0 ADD PUSH1 0x1 PUSH2 0x100 EXP DUP2 SLOAD DUP2 PUSH1 0xFF MUL NOT AND SWAP1 DUP4 ISZERO ISZERO MUL OR SWAP1 SSTORE POP SWAP1 POP POP PUSH32 0xB6BE2187D059CC2A55FE29E0E503B566E1E0F8C8780096E185429350ACFFD3DD DUP2 PUSH1 0x40 MLOAD PUSH2 0x844 SWAP2 SWAP1 PUSH2 0xEFD JUMP JUMPDEST PUSH1 0x40 MLOAD DUP1 SWAP2 SUB SWAP1 LOG1 POP JUMP JUMPDEST PUSH0 DUP1 SLOAD SWAP1 PUSH2 0x100 EXP SWAP1 DIV PUSH20 0xFFFFFFFFFFFFFFFFFFFFFFFFFFFFFFFFFFFFFFFF AND PUSH20 0xFFFFFFFFFFFFFFFFFFFFFFFFFFFFFFFFFFFFFFFF AND CALLER PUSH20 0xFFFFFFFFFFFFFFFFFFFFFFFFFFFFFFFFFFFFFFFF AND EQ PUSH2 0x8DC JUMPI PUSH1 0x40 MLOAD PUSH32 0x8C379A000000000000000000000000000000000000000000000000000000000 DUP2 MSTORE PUSH1 0x4 ADD PUSH2 0x8D3 SWAP1 PUSH2 0x11C7 JUMP JUMPDEST PUSH1 0x40 MLOAD DUP1 SWAP2 SUB SWAP1 REVERT JUMPDEST PUSH1 0x2 PUSH1 0x40 MLOAD DUP1 PUSH1 0x60 ADD PUSH1 0x40 MSTORE DUP1 PUSH1 0x2 DUP1 SLOAD SWAP1 POP DUP2 MSTORE PUSH1 0x20 ADD DUP4 DUP2 MSTORE PUSH1 0x20 ADD PUSH0 DUP2 MSTORE POP SWAP1 DUP1 PUSH1 0x1 DUP2 SLOAD ADD DUP1 DUP3 SSTORE DUP1 SWAP2 POP POP PUSH1 0x1 SWAP1 SUB SWAP1 PUSH0 MSTORE PUSH1 0x20 PUSH0 KECCAK256 SWAP1 PUSH1 0x3 MUL ADD PUSH0 SWAP1 SWAP2 SWAP1 SWAP2 SWAP1 SWAP2 POP PUSH0 DUP3 ADD MLOAD DUP2 PUSH0 ADD SSTORE PUSH1 0x20 DUP3 ADD MLOAD DUP2 PUSH1 0x1 ADD SWAP1 DUP2 PUSH2 0x941 SWAP2 SWAP1 PUSH2 0x14AF JUMP JUMPDEST POP PUSH1 0x40 DUP3 ADD MLOAD DUP2 PUSH1 0x2 ADD SSTORE POP POP PUSH32 0xE83B2A43E7E82D975C8A0A6D2F045153C869E111136A34D1889AB7B598E396A3 PUSH1 0x1 PUSH1 0x2 DUP1 SLOAD SWAP1 POP PUSH2 0x981 SWAP2 SWAP1 PUSH2 0x157E JUMP JUMPDEST DUP3 PUSH1 0x40 MLOAD PUSH2 0x990 SWAP3 SWAP2 SWAP1 PUSH2 0x15B1 JUMP JUMPDEST PUSH1 0x40 MLOAD DUP1 SWAP2 SUB SWAP1 LOG1 POP JUMP JUMPDEST PUSH0 DUP1 PUSH1 0x14 SWAP1 SLOAD SWAP1 PUSH2 0x100 EXP SWAP1 DIV PUSH1 0xFF AND SWAP1 POP SWAP1 JUMP JUMPDEST PUSH1 0x1 PUSH1 0x20 MSTORE DUP1 PUSH0 MSTORE PUSH1 0x40 PUSH0 KECCAK256 PUSH0 SWAP2 POP SWAP1 POP DUP1 PUSH0 ADD PUSH0 SWAP1 SLOAD SWAP1 PUSH2 0x100 EXP SWAP1 DIV PUSH1 0xFF AND SWAP1 DUP1 PUSH0 ADD PUSH1 0x1 SWAP1 SLOAD SWAP1 PUSH2 0x100 EXP SWAP1 DIV PUSH1 0xFF AND SWAP1 POP DUP3 JUMP JUMPDEST PUSH0 PUSH1 0x14 SWAP1 SLOAD SWAP1 PUSH2 0x100 EXP SWAP1 DIV PUSH1 0xFF AND DUP2 JUMP JUMPDEST PUSH0 DUP1 SLOAD SWAP1 PUSH2 0x100 EXP SWAP1 DIV PUSH20 0xFFFFFFFFFFFFFFFFFFFFFFFFFFFFFFFFFFFFFFFF AND PUSH20 0xFFFFFFFFFFFFFFFFFFFFFFFFFFFFFFFFFFFFFFFF AND CALLER PUSH20 0xFFFFFFFFFFFFFFFFFFFFFFFFFFFFFFFFFFFFFFFF AND EQ PUSH2 0xA87 JUMPI PUSH1 0x40 MLOAD PUSH32 0x8C379A000000000000000000000000000000000000000000000000000000000 DUP2 MSTORE PUSH1 0x4 ADD PUSH2 0xA7E SWAP1 PUSH2 0x11C7 JUMP JUMPDEST PUSH1 0x40 MLOAD DUP1 SWAP2 SUB SWAP1 REVERT JUMPDEST PUSH0 PUSH1 0x14 SWAP1 SLOAD SWAP1 PUSH2 0x100 EXP SWAP1 DIV PUSH1 0xFF AND PUSH2 0xAD5 JUMPI PUSH1 0x40 MLOAD PUSH32 0x8C379A000000000000000000000000000000000000000000000000000000000 DUP2 MSTORE PUSH1 0x4 ADD PUSH2 0xACC SWAP1 PUSH2 0x1629 JUMP JUMPDEST PUSH1 0x40 MLOAD DUP1 SWAP2 SUB SWAP1 REVERT JUMPDEST PUSH0 DUP1 PUSH1 0x14 PUSH2 0x100 EXP DUP2 SLOAD DUP2 PUSH1 0xFF MUL NOT AND SWAP1 DUP4 ISZERO ISZERO MUL OR SWAP1 SSTORE POP PUSH32 0x7A19ED057DB79E3C2FA0B97A54B43BEF4FCE74B31BB6C01AF514B9A18A7F70AB PUSH1 0x40 MLOAD PUSH1 0x40 MLOAD DUP1 SWAP2 SUB SWAP1 LOG1 JUMP JUMPDEST PUSH0 DUP1 SLOAD SWAP1 PUSH2 0x100 EXP SWAP1 DIV PUSH20 0xFFFFFFFFFFFFFFFFFFFFFFFFFFFFFFFFFFFFFFFF AND DUP2 JUMP JUMPDEST PUSH0 PUSH1 0x40 MLOAD SWAP1 POP SWAP1 JUMP JUMPDEST PUSH0 DUP1 REVERT JUMPDEST PUSH0 DUP1 REVERT JUMPDEST PUSH0 DUP2 SWAP1 POP SWAP2 SWAP1 POP JUMP JUMPDEST PUSH2 0xB62 DUP2 PUSH2 0xB50 JUMP JUMPDEST DUP2 EQ PUSH2 0xB6C JUMPI PUSH0 DUP1 REVERT JUMPDEST POP JUMP JUMPDEST PUSH0 DUP2 CALLDATALOAD SWAP1 POP PUSH2 0xB7D DUP2 PUSH2 0xB59 JUMP JUMPDEST SWAP3 SWAP2 POP POP JUMP JUMPDEST PUSH0 PUSH1 0x20 DUP3 DUP5 SUB SLT ISZERO PUSH2 0xB98 JUMPI PUSH2 0xB97 PUSH2 0xB48 JUMP JUMPDEST JUMPDEST PUSH0 PUSH2 0xBA5 DUP5 DUP3 DUP6 ADD PUSH2 0xB6F JUMP JUMPDEST SWAP2 POP POP SWAP3 SWAP2 POP POP JUMP JUMPDEST PUSH2 0xBB7 DUP2 PUSH2 0xB50 JUMP JUMPDEST DUP3 MSTORE POP POP JUMP JUMPDEST PUSH0 PUSH1 0x20 DUP3 ADD SWAP1 POP PUSH2 0xBD0 PUSH0 DUP4 ADD DUP5 PUSH2 0xBAE JUMP JUMPDEST SWAP3 SWAP2 POP POP JUMP JUMPDEST PUSH0 DUP2 MLOAD SWAP1 POP SWAP2 SWAP1 POP JUMP JUMPDEST PUSH0 DUP3 DUP3 MSTORE PUSH1 0x20 DUP3 ADD SWAP1 POP SWAP3 SWAP2 POP POP JUMP JUMPDEST PUSH0 JUMPDEST DUP4 DUP2 LT ISZERO PUSH2 0xC0D JUMPI DUP1 DUP3 ADD MLOAD DUP2 DUP5 ADD MSTORE PUSH1 0x20 DUP2 ADD SWAP1 POP PUSH2 0xBF2 JUMP JUMPDEST PUSH0 DUP5 DUP5 ADD MSTORE POP POP POP POP JUMP JUMPDEST PUSH0 PUSH1 0x1F NOT PUSH1 0x1F DUP4 ADD AND SWAP1 POP SWAP2 SWAP1 POP JUMP JUMPDEST PUSH0 PUSH2 0xC32 DUP3 PUSH2 0xBD6 JUMP JUMPDEST PUSH2 0xC3C DUP2 DUP6 PUSH2 0xBE0 JUMP JUMPDEST SWAP4 POP PUSH2 0xC4C DUP2 DUP6 PUSH1 0x20 DUP7 ADD PUSH2 0xBF0 JUMP JUMPDEST PUSH2 0xC55 DUP2 PUSH2 0xC18 JUMP JUMPDEST DUP5 ADD SWAP2 POP POP SWAP3 SWAP2 POP POP JUMP JUMPDEST PUSH0 PUSH1 0x60 DUP3 ADD SWAP1 POP PUSH2 0xC73 PUSH0 DUP4 ADD DUP7 PUSH2 0xBAE JUMP JUMPDEST DUP2 DUP2 SUB PUSH1 0x20 DUP4 ADD MSTORE PUSH2 0xC85 DUP2 DUP6 PUSH2 0xC28 JUMP JUMPDEST SWAP1 POP PUSH2 0xC94 PUSH1 0x40 DUP4 ADD DUP5 PUSH2 0xBAE JUMP JUMPDEST SWAP5 SWAP4 POP POP POP POP JUMP JUMPDEST PUSH0 PUSH20 0xFFFFFFFFFFFFFFFFFFFFFFFFFFFFFFFFFFFFFFFF DUP3 AND SWAP1 POP SWAP2 SWAP1 POP JUMP JUMPDEST PUSH0 PUSH2 0xCC5 DUP3 PUSH2 0xC9C JUMP JUMPDEST SWAP1 POP SWAP2 SWAP1 POP JUMP JUMPDEST PUSH2 0xCD5 DUP2 PUSH2 0xCBB JUMP JUMPDEST DUP2 EQ PUSH2 0xCDF JUMPI PUSH0 DUP1 REVERT JUMPDEST POP JUMP JUMPDEST PUSH0 DUP2 CALLDATALOAD SWAP1 POP PUSH2 0xCF0 DUP2 PUSH2 0xCCC JUMP JUMPDEST SWAP3 SWAP2 POP POP JUMP JUMPDEST PUSH0 PUSH1 0x20 DUP3 DUP5 SUB SLT ISZERO PUSH2 0xD0B JUMPI PUSH2 0xD0A PUSH2 0xB48 JUMP JUMPDEST JUMPDEST PUSH0 PUSH2 0xD18 DUP5 DUP3 DUP6 ADD PUSH2 0xCE2 JUMP JUMPDEST SWAP2 POP POP SWAP3 SWAP2 POP POP JUMP JUMPDEST PUSH0 DUP1 REVERT JUMPDEST PUSH0 DUP1 REVERT JUMPDEST PUSH32 0x4E487B7100000000000000000000000000000000000000000000000000000000 PUSH0 MSTORE PUSH1 0x41 PUSH1 0x4 MSTORE PUSH1 0x24 PUSH0 REVERT JUMPDEST PUSH2 0xD5F DUP3 PUSH2 0xC18 JUMP JUMPDEST DUP2 ADD DUP2 DUP2 LT PUSH8 0xFFFFFFFFFFFFFFFF DUP3 GT OR ISZERO PUSH2 0xD7E JUMPI PUSH2 0xD7D PUSH2 0xD29 JUMP JUMPDEST JUMPDEST DUP1 PUSH1 0x40 MSTORE POP POP POP JUMP JUMPDEST PUSH0 PUSH2 0xD90 PUSH2 0xB3F JUMP JUMPDEST SWAP1 POP PUSH2 0xD9C DUP3 DUP3 PUSH2 0xD56 JUMP JUMPDEST SWAP2 SWAP1 POP JUMP JUMPDEST PUSH0 PUSH8 0xFFFFFFFFFFFFFFFF DUP3 GT ISZERO PUSH2 0xDBB JUMPI PUSH2 0xDBA PUSH2 0xD29 JUMP JUMPDEST JUMPDEST PUSH2 0xDC4 DUP3 PUSH2 0xC18 JUMP JUMPDEST SWAP1 POP PUSH1 0x20 DUP2 ADD SWAP1 POP SWAP2 SWAP1 POP JUMP JUMPDEST DUP3 DUP2 DUP4 CALLDATACOPY PUSH0 DUP4 DUP4 ADD MSTORE POP POP POP JUMP JUMPDEST PUSH0 PUSH2 0xDF1 PUSH2 0xDEC DUP5 PUSH2 0xDA1 JUMP JUMPDEST PUSH2 0xD87 JUMP JUMPDEST SWAP1 POP DUP3 DUP2 MSTORE PUSH1 0x20 DUP2 ADD DUP5 DUP5 DUP5 ADD GT ISZERO PUSH2 0xE0D JUMPI PUSH2 0xE0C PUSH2 0xD25 JUMP JUMPDEST JUMPDEST PUSH2 0xE18 DUP5 DUP3 DUP6 PUSH2 0xDD1 JUMP JUMPDEST POP SWAP4 SWAP3 POP POP POP JUMP JUMPDEST PUSH0 DUP3 PUSH1 0x1F DUP4 ADD SLT PUSH2 0xE34 JUMPI PUSH2 0xE33 PUSH2 0xD21 JUMP JUMPDEST JUMPDEST DUP2 CALLDATALOAD PUSH2 0xE44 DUP5 DUP3 PUSH1 0x20 DUP7 ADD PUSH2 0xDDF JUMP JUMPDEST SWAP2 POP POP SWAP3 SWAP2 POP POP JUMP JUMPDEST PUSH0 PUSH1 0x20 DUP3 DUP5 SUB SLT ISZERO PUSH2 0xE62 JUMPI PUSH2 0xE61 PUSH2 0xB48 JUMP JUMPDEST JUMPDEST PUSH0 DUP3 ADD CALLDATALOAD PUSH8 0xFFFFFFFFFFFFFFFF DUP2 GT ISZERO PUSH2 0xE7F JUMPI PUSH2 0xE7E PUSH2 0xB4C JUMP JUMPDEST JUMPDEST PUSH2 0xE8B DUP5 DUP3 DUP6 ADD PUSH2 0xE20 JUMP JUMPDEST SWAP2 POP POP SWAP3 SWAP2 POP POP JUMP JUMPDEST PUSH0 DUP2 ISZERO ISZERO SWAP1 POP SWAP2 SWAP1 POP JUMP JUMPDEST PUSH2 0xEA8 DUP2 PUSH2 0xE94 JUMP JUMPDEST DUP3 MSTORE POP POP JUMP JUMPDEST PUSH0 PUSH1 0x20 DUP3 ADD SWAP1 POP PUSH2 0xEC1 PUSH0 DUP4 ADD DUP5 PUSH2 0xE9F JUMP JUMPDEST SWAP3 SWAP2 POP POP JUMP JUMPDEST PUSH0 PUSH1 0x40 DUP3 ADD SWAP1 POP PUSH2 0xEDA PUSH0 DUP4 ADD DUP6 PUSH2 0xE9F JUMP JUMPDEST PUSH2 0xEE7 PUSH1 0x20 DUP4 ADD DUP5 PUSH2 0xE9F JUMP JUMPDEST SWAP4 SWAP3 POP POP POP JUMP JUMPDEST PUSH2 0xEF7 DUP2 PUSH2 0xCBB JUMP JUMPDEST DUP3 MSTORE POP POP JUMP JUMPDEST PUSH0 PUSH1 0x20 DUP3 ADD SWAP1 POP PUSH2 0xF10 PUSH0 DUP4 ADD DUP5 PUSH2 0xEEE JUMP JUMPDEST SWAP3 SWAP2 POP POP JUMP JUMPDEST PUSH32 0x566F74696E67206973206E6F74206F70656E0000000000000000000000000000 PUSH0 DUP3 ADD MSTORE POP JUMP JUMPDEST PUSH0 PUSH2 0xF4A PUSH1 0x12 DUP4 PUSH2 0xBE0 JUMP JUMPDEST SWAP2 POP PUSH2 0xF55 DUP3 PUSH2 0xF16 JUMP JUMPDEST PUSH1 0x20 DUP3 ADD SWAP1 POP SWAP2 SWAP1 POP JUMP JUMPDEST PUSH0 PUSH1 0x20 DUP3 ADD SWAP1 POP DUP2 DUP2 SUB PUSH0 DUP4 ADD MSTORE PUSH2 0xF77 DUP2 PUSH2 0xF3E JUMP JUMPDEST SWAP1 POP SWAP2 SWAP1 POP JUMP JUMPDEST PUSH32 0x566F746572206E6F742072656769737465726564000000000000000000000000 PUSH0 DUP3 ADD MSTORE POP JUMP JUMPDEST PUSH0 PUSH2 0xFB2 PUSH1 0x14 DUP4 PUSH2 0xBE0 JUMP JUMPDEST SWAP2 POP PUSH2 0xFBD DUP3 PUSH2 0xF7E JUMP JUMPDEST PUSH1 0x20 DUP3 ADD SWAP1 POP SWAP2 SWAP1 POP JUMP JUMPDEST PUSH0 PUSH1 0x20 DUP3 ADD SWAP1 POP DUP2 DUP2 SUB PUSH0 DUP4 ADD MSTORE PUSH2 0xFDF DUP2 PUSH2 0xFA6 JUMP JUMPDEST SWAP1 POP SWAP2 SWAP1 POP JUMP JUMPDEST PUSH32 0x416C726561647920766F74656400000000000000000000000000000000000000 PUSH0 DUP3 ADD MSTORE POP JUMP JUMPDEST PUSH0 PUSH2 0x101A PUSH1 0xD DUP4 PUSH2 0xBE0 JUMP JUMPDEST SWAP2 POP PUSH2 0x1025 DUP3 PUSH2 0xFE6 JUMP JUMPDEST PUSH1 0x20 DUP3 ADD SWAP1 POP SWAP2 SWAP1 POP JUMP JUMPDEST PUSH0 PUSH1 0x20 DUP3 ADD SWAP1 POP DUP2 DUP2 SUB PUSH0 DUP4 ADD MSTORE PUSH2 0x1047 DUP2 PUSH2 0x100E JUMP JUMPDEST SWAP1 POP SWAP2 SWAP1 POP JUMP JUMPDEST PUSH32 0x496E76616C69642063616E646964617465000000000000000000000000000000 PUSH0 DUP3 ADD MSTORE POP JUMP JUMPDEST PUSH0 PUSH2 0x1082 PUSH1 0x11 DUP4 PUSH2 0xBE0 JUMP JUMPDEST SWAP2 POP PUSH2 0x108D DUP3 PUSH2 0x104E JUMP JUMPDEST PUSH1 0x20 DUP3 ADD SWAP1 POP SWAP2 SWAP1 POP JUMP JUMPDEST PUSH0 PUSH1 0x20 DUP3 ADD SWAP1 POP DUP2 DUP2 SUB PUSH0 DUP4 ADD MSTORE PUSH2 0x10AF DUP2 PUSH2 0x1076 JUMP JUMPDEST SWAP1 POP SWAP2 SWAP1 POP JUMP JUMPDEST PUSH32 0x4E487B7100000000000000000000000000000000000000000000000000000000 PUSH0 MSTORE PUSH1 0x32 PUSH1 0x4 MSTORE PUSH1 0x24 PUSH0 REVERT JUMPDEST PUSH32 0x4E487B7100000000000000000000000000000000000000000000000000000000 PUSH0 MSTORE PUSH1 0x11 PUSH1 0x4 MSTORE PUSH1 0x24 PUSH0 REVERT JUMPDEST PUSH0 PUSH2 0x111A DUP3 PUSH2 0xB50 JUMP JUMPDEST SWAP2 POP PUSH32 0xFFFFFFFFFFFFFFFFFFFFFFFFFFFFFFFFFFFFFFFFFFFFFFFFFFFFFFFFFFFFFFFF DUP3 SUB PUSH2 0x114C JUMPI PUSH2 0x114B PUSH2 0x10E3 JUMP JUMPDEST JUMPDEST PUSH1 0x1 DUP3 ADD SWAP1 POP SWAP2 SWAP1 POP JUMP JUMPDEST PUSH32 0x4F6E6C792061646D696E2063616E20706572666F726D20746869732061637469 PUSH0 DUP3 ADD MSTORE PUSH32 0x6F6E000000000000000000000000000000000000000000000000000000000000 PUSH1 0x20 DUP3 ADD MSTORE POP JUMP JUMPDEST PUSH0 PUSH2 0x11B1 PUSH1 0x22 DUP4 PUSH2 0xBE0 JUMP JUMPDEST SWAP2 POP PUSH2 0x11BC DUP3 PUSH2 0x1157 JUMP JUMPDEST PUSH1 0x40 DUP3 ADD SWAP1 POP SWAP2 SWAP1 POP JUMP JUMPDEST PUSH0 PUSH1 0x20 DUP3 ADD SWAP1 POP DUP2 DUP2 SUB PUSH0 DUP4 ADD MSTORE PUSH2 0x11DE DUP2 PUSH2 0x11A5 JUMP JUMPDEST SWAP1 POP SWAP2 SWAP1 POP JUMP JUMPDEST PUSH32 0x566F74696E6720616C7265616479207374617274656400000000000000000000 PUSH0 DUP3 ADD MSTORE POP JUMP JUMPDEST PUSH0 PUSH2 0x1219 PUSH1 0x16 DUP4 PUSH2 0xBE0 JUMP JUMPDEST SWAP2 POP PUSH2 0x1224 DUP3 PUSH2 0x11E5 JUMP JUMPDEST PUSH1 0x20 DUP3 ADD SWAP1 POP SWAP2 SWAP1 POP JUMP JUMPDEST PUSH0 PUSH1 0x20 DUP3 ADD SWAP1 POP DUP2 DUP2 SUB PUSH0 DUP4 ADD MSTORE PUSH2 0x1246 DUP2 PUSH2 0x120D JUMP JUMPDEST SWAP1 POP SWAP2 SWAP1 POP JUMP JUMPDEST PUSH32 0x4E487B7100000000000000000000000000000000000000000000000000000000 PUSH0 MSTORE PUSH1 0x22 PUSH1 0x4 MSTORE PUSH1 0x24 PUSH0 REVERT JUMPDEST PUSH0 PUSH1 0x2 DUP3 DIV SWAP1 POP PUSH1 0x1 DUP3 AND DUP1 PUSH2 0x1291 JUMPI PUSH1 0x7F DUP3 AND SWAP2 POP JUMPDEST PUSH1 0x20 DUP3 LT DUP2 SUB PUSH2 0x12A4 JUMPI PUSH2 0x12A3 PUSH2 0x124D JUMP JUMPDEST JUMPDEST POP SWAP2 SWAP1 POP JUMP JUMPDEST PUSH32 0x566F74657220616C726561647920726567697374657265640000000000000000 PUSH0 DUP3 ADD MSTORE POP JUMP JUMPDEST PUSH0 PUSH2 0x12DE PUSH1 0x18 DUP4 PUSH2 0xBE0 JUMP JUMPDEST SWAP2 POP PUSH2 0x12E9 DUP3 PUSH2 0x12AA JUMP JUMPDEST PUSH1 0x20 DUP3 ADD SWAP1 POP SWAP2 SWAP1 POP JUMP JUMPDEST PUSH0 PUSH1 0x20 DUP3 ADD SWAP1 POP DUP2 DUP2 SUB PUSH0 DUP4 ADD MSTORE PUSH2 0x130B DUP2 PUSH2 0x12D2 JUMP JUMPDEST SWAP1 POP SWAP2 SWAP1 POP JUMP JUMPDEST PUSH0 DUP2 SWAP1 POP DUP2 PUSH0 MSTORE PUSH1 0x20 PUSH0 KECCAK256 SWAP1 POP SWAP2 SWAP1 POP JUMP JUMPDEST PUSH0 PUSH1 0x20 PUSH1 0x1F DUP4 ADD DIV SWAP1 POP SWAP2 SWAP1 POP JUMP JUMPDEST PUSH0 DUP3 DUP3 SHL SWAP1 POP SWAP3 SWAP2 POP POP JUMP JUMPDEST PUSH0 PUSH1 0x8 DUP4 MUL PUSH2 0x136E PUSH32 0xFFFFFFFFFFFFFFFFFFFFFFFFFFFFFFFFFFFFFFFFFFFFFFFFFFFFFFFFFFFFFFFF DUP3 PUSH2 0x1333 JUMP JUMPDEST PUSH2 0x1378 DUP7 DUP4 PUSH2 0x1333 JUMP JUMPDEST SWAP6 POP DUP1 NOT DUP5 AND SWAP4 POP DUP1 DUP7 AND DUP5 OR SWAP3 POP POP POP SWAP4 SWAP3 POP POP POP JUMP JUMPDEST PUSH0 DUP2 SWAP1 POP SWAP2 SWAP1 POP JUMP JUMPDEST PUSH0 PUSH2 0x13B3 PUSH2 0x13AE PUSH2 0x13A9 DUP5 PUSH2 0xB50 JUMP JUMPDEST PUSH2 0x1390 JUMP JUMPDEST PUSH2 0xB50 JUMP JUMPDEST SWAP1 POP SWAP2 SWAP1 POP JUMP JUMPDEST PUSH0 DUP2 SWAP1 POP SWAP2 SWAP1 POP JUMP JUMPDEST PUSH2 0x13CC DUP4 PUSH2 0x1399 JUMP JUMPDEST PUSH2 0x13E0 PUSH2 0x13D8 DUP3 PUSH2 0x13BA JUMP JUMPDEST DUP5 DUP5 SLOAD PUSH2 0x133F JUMP JUMPDEST DUP3 SSTORE POP POP POP POP JUMP JUMPDEST PUSH0 SWAP1 JUMP JUMPDEST PUSH2 0x13F4 PUSH2 0x13E8 JUMP JUMPDEST PUSH2 0x13FF DUP2 DUP5 DUP5 PUSH2 0x13C3 JUMP JUMPDEST POP POP POP JUMP JUMPDEST JUMPDEST DUP2 DUP2 LT ISZERO PUSH2 0x1422 JUMPI PUSH2 0x1417 PUSH0 DUP3 PUSH2 0x13EC JUMP JUMPDEST PUSH1 0x1 DUP2 ADD SWAP1 POP PUSH2 0x1405 JUMP JUMPDEST POP POP JUMP JUMPDEST PUSH1 0x1F DUP3 GT ISZERO PUSH2 0x1467 JUMPI PUSH2 0x1438 DUP2 PUSH2 0x1312 JUMP JUMPDEST PUSH2 0x1441 DUP5 PUSH2 0x1324 JUMP JUMPDEST DUP2 ADD PUSH1 0x20 DUP6 LT ISZERO PUSH2 0x1450 JUMPI DUP2 SWAP1 POP JUMPDEST PUSH2 0x1464 PUSH2 0x145C DUP6 PUSH2 0x1324 JUMP JUMPDEST DUP4 ADD DUP3 PUSH2 0x1404 JUMP JUMPDEST POP POP JUMPDEST POP POP POP JUMP JUMPDEST PUSH0 DUP3 DUP3 SHR SWAP1 POP SWAP3 SWAP2 POP POP JUMP JUMPDEST PUSH0 PUSH2 0x1487 PUSH0 NOT DUP5 PUSH1 0x8 MUL PUSH2 0x146C JUMP JUMPDEST NOT DUP1 DUP4 AND SWAP2 POP POP SWAP3 SWAP2 POP POP JUMP JUMPDEST PUSH0 PUSH2 0x149F DUP4 DUP4 PUSH2 0x1478 JUMP JUMPDEST SWAP2 POP DUP3 PUSH1 0x2 MUL DUP3 OR SWAP1 POP SWAP3 SWAP2 POP POP JUMP JUMPDEST PUSH2 0x14B8 DUP3 PUSH2 0xBD6 JUMP JUMPDEST PUSH8 0xFFFFFFFFFFFFFFFF DUP2 GT ISZERO PUSH2 0x14D1 JUMPI PUSH2 0x14D0 PUSH2 0xD29 JUMP JUMPDEST JUMPDEST PUSH2 0x14DB DUP3 SLOAD PUSH2 0x127A JUMP JUMPDEST PUSH2 0x14E6 DUP3 DUP3 DUP6 PUSH2 0x1426 JUMP JUMPDEST PUSH0 PUSH1 0x20 SWAP1 POP PUSH1 0x1F DUP4 GT PUSH1 0x1 DUP2 EQ PUSH2 0x1517 JUMPI PUSH0 DUP5 ISZERO PUSH2 0x1505 JUMPI DUP3 DUP8 ADD MLOAD SWAP1 POP JUMPDEST PUSH2 0x150F DUP6 DUP3 PUSH2 0x1494 JUMP JUMPDEST DUP7 SSTORE POP PUSH2 0x1576 JUMP JUMPDEST PUSH1 0x1F NOT DUP5 AND PUSH2 0x1525 DUP7 PUSH2 0x1312 JUMP JUMPDEST PUSH0 JUMPDEST DUP3 DUP2 LT ISZERO PUSH2 0x154C JUMPI DUP5 DUP10 ADD MLOAD DUP3 SSTORE PUSH1 0x1 DUP3 ADD SWAP2 POP PUSH1 0x20 DUP6 ADD SWAP5 POP PUSH1 0x20 DUP2 ADD SWAP1 POP PUSH2 0x1527 JUMP JUMPDEST DUP7 DUP4 LT ISZERO PUSH2 0x1569 JUMPI DUP5 DUP10 ADD MLOAD PUSH2 0x1565 PUSH1 0x1F DUP10 AND DUP3 PUSH2 0x1478 JUMP JUMPDEST DUP4 SSTORE POP JUMPDEST PUSH1 0x1 PUSH1 0x2 DUP9 MUL ADD DUP9 SSTORE POP POP POP JUMPDEST POP POP POP POP POP POP JUMP JUMPDEST PUSH0 PUSH2 0x1588 DUP3 PUSH2 0xB50 JUMP JUMPDEST SWAP2 POP PUSH2 0x1593 DUP4 PUSH2 0xB50 JUMP JUMPDEST SWAP3 POP DUP3 DUP3 SUB SWAP1 POP DUP2 DUP2 GT ISZERO PUSH2 0x15AB JUMPI PUSH2 0x15AA PUSH2 0x10E3 JUMP JUMPDEST JUMPDEST SWAP3 SWAP2 POP POP JUMP JUMPDEST PUSH0 PUSH1 0x40 DUP3 ADD SWAP1 POP PUSH2 0x15C4 PUSH0 DUP4 ADD DUP6 PUSH2 0xBAE JUMP JUMPDEST DUP2 DUP2 SUB PUSH1 0x20 DUP4 ADD MSTORE PUSH2 0x15D6 DUP2 DUP5 PUSH2 0xC28 JUMP JUMPDEST SWAP1 POP SWAP4 SWAP3 POP POP POP JUMP JUMPDEST PUSH32 0x566F74696E67206E6F7420737461727465640000000000000000000000000000 PUSH0 DUP3 ADD MSTORE POP JUMP JUMPDEST PUSH0 PUSH2 0x1613 PUSH1 0x12 DUP4 PUSH2 0xBE0 JUMP JUMPDEST SWAP2 POP PUSH2 0x161E DUP3 PUSH2 0x15DF JUMP JUMPDEST PUSH1 0x20 DUP3 ADD SWAP1 POP SWAP2 SWAP1 POP JUMP JUMPDEST PUSH0 PUSH1 0x20 DUP3 ADD SWAP1 POP DUP2 DUP2 SUB PUSH0 DUP4 ADD MSTORE PUSH2 0x1640 DUP2 PUSH2 0x1607 JUMP JUMPDEST SWAP1 POP SWAP2 SWAP1 POP JUMP INVALID LOG2 PUSH5 0x6970667358 0x22 SLT KECCAK256 DUP4 0xE3 SWAP9 RETURNDATASIZE 0xC6 MSIZE 0x2D 0xC9 0xC6 DUP11 0xEA 0xBE 0xBD 0xD2 SDIV SDIV DUP8 SGT GASPRICE 0xB8 GASLIMIT CALLER SUB 0x22 0xD1 0xCB 0xAA 0xF8 SMOD SWAP6 SAR STOP PUSH5 0x736F6C6343 STOP ADDMOD AND STOP CALLER "
				},
				"gasEstimates": {
					"creation": {
						"codeDepositCost": "1151400",
						"executionCost": "49773",
						"totalCost": "1201173"
					},
					"external": {
						"addCandidate(string)": "infinite",
						"admin()": "2615",
						"candidates(uint256)": "infinite",
						"endVoting()": "29692",
						"getCandidateCount()": "2485",
						"getVotingStatus()": "2546",
						"registerVoter(address)": "infinite",
						"startVoting()": "29630",
						"vote(uint256)": "infinite",
						"voters(address)": "infinite",
						"votingOpen()": "2582"
					}
				},
				"methodIdentifiers": {
					"addCandidate(string)": "462e91ec",
					"admin()": "f851a440",
					"candidates(uint256)": "3477ee2e",
					"endVoting()": "c3403ddf",
					"getCandidateCount()": "30a56347",
					"getVotingStatus()": "581c281c",
					"registerVoter(address)": "38db6dd3",
					"startVoting()": "1ec6b60a",
					"vote(uint256)": "0121b93f",
					"voters(address)": "a3ec138d",
					"votingOpen()": "a95824b4"
				}
			},
			"storageLayout": {
				"storage": [
					{
						"astId": 3,
						"contract": "contracts/VotingContract.sol:BlockchainVotingSystem",
						"label": "admin",
						"offset": 0,
						"slot": "0",
						"type": "t_address"
					},
					{
						"astId": 6,
						"contract": "contracts/VotingContract.sol:BlockchainVotingSystem",
						"label": "votingOpen",
						"offset": 20,
						"slot": "0",
						"type": "t_bool"
					},
					{
						"astId": 23,
						"contract": "contracts/VotingContract.sol:BlockchainVotingSystem",
						"label": "voters",
						"offset": 0,
						"slot": "1",
						"type": "t_mapping(t_address,t_struct(Voter)11_storage)"
					},
					{
						"astId": 27,
						"contract": "contracts/VotingContract.sol:BlockchainVotingSystem",
						"label": "candidates",
						"offset": 0,
						"slot": "2",
						"type": "t_array(t_struct(Candidate)18_storage)dyn_storage"
					}
				],
				"types": {
					"t_address": {
						"encoding": "inplace",
						"label": "address",
						"numberOfBytes": "20"
					},
					"t_array(t_struct(Candidate)18_storage)dyn_storage": {
						"base": "t_struct(Candidate)18_storage",
						"encoding": "dynamic_array",
						"label": "struct BlockchainVotingSystem.Candidate[]",
						"numberOfBytes": "32"
					},
					"t_bool": {
						"encoding": "inplace",
						"label": "bool",
						"numberOfBytes": "1"
					},
					"t_mapping(t_address,t_struct(Voter)11_storage)": {
						"encoding": "mapping",
						"key": "t_address",
						"label": "mapping(address => struct BlockchainVotingSystem.Voter)",
						"numberOfBytes": "32",
						"value": "t_struct(Voter)11_storage"
					},
					"t_string_storage": {
						"encoding": "bytes",
						"label": "string",
						"numberOfBytes": "32"
					},
					"t_struct(Candidate)18_storage": {
						"encoding": "inplace",
						"label": "struct BlockchainVotingSystem.Candidate",
						"members": [
							{
								"astId": 13,
								"contract": "contracts/VotingContract.sol:BlockchainVotingSystem",
								"label": "id",
								"offset": 0,
								"slot": "0",
								"type": "t_uint256"
							},
							{
								"astId": 15,
								"contract": "contracts/VotingContract.sol:BlockchainVotingSystem",
								"label": "name",
								"offset": 0,
								"slot": "1",
								"type": "t_string_storage"
							},
							{
								"astId": 17,
								"contract": "contracts/VotingContract.sol:BlockchainVotingSystem",
								"label": "voteCount",
								"offset": 0,
								"slot": "2",
								"type": "t_uint256"
							}
						],
						"numberOfBytes": "96"
					},
					"t_struct(Voter)11_storage": {
						"encoding": "inplace",
						"label": "struct BlockchainVotingSystem.Voter",
						"members": [
							{
								"astId": 8,
								"contract": "contracts/VotingContract.sol:BlockchainVotingSystem",
								"label": "isRegistered",
								"offset": 0,
								"slot": "0",
								"type": "t_bool"
							},
							{
								"astId": 10,
								"contract": "contracts/VotingContract.sol:BlockchainVotingSystem",
								"label": "hasVoted",
								"offset": 1,
								"slot": "0",
								"type": "t_bool"
							}
						],
						"numberOfBytes": "32"
					},
					"t_uint256": {
						"encoding": "inplace",
						"label": "uint256",
						"numberOfBytes": "32"
					}
				}
			},
			"userdoc": {
				"kind": "user",
				"methods": {},
				"version": 1
			}
		}
	}
}